{
  "address": "0xd666d1CC3102cd03e07794A61E5F4333B4239F53",
  "abi": [
    {
      "inputs": [],
      "stateMutability": "nonpayable",
      "type": "constructor"
    },
    {
      "anonymous": false,
      "inputs": [
        {
          "indexed": true,
          "internalType": "address",
          "name": "owner",
          "type": "address"
        },
        {
          "indexed": true,
          "internalType": "address",
          "name": "approved",
          "type": "address"
        },
        {
          "indexed": true,
          "internalType": "uint256",
          "name": "tokenId",
          "type": "uint256"
        }
      ],
      "name": "Approval",
      "type": "event"
    },
    {
      "anonymous": false,
      "inputs": [
        {
          "indexed": true,
          "internalType": "address",
          "name": "owner",
          "type": "address"
        },
        {
          "indexed": true,
          "internalType": "address",
          "name": "operator",
          "type": "address"
        },
        {
          "indexed": false,
          "internalType": "bool",
          "name": "approved",
          "type": "bool"
        }
      ],
      "name": "ApprovalForAll",
      "type": "event"
    },
    {
      "anonymous": false,
      "inputs": [
        {
          "indexed": false,
          "internalType": "uint256",
          "name": "landMaxLevel",
          "type": "uint256"
        }
      ],
      "name": "LandMaxLevel",
      "type": "event"
    },
    {
      "anonymous": false,
      "inputs": [
        {
          "indexed": true,
          "internalType": "address",
          "name": "to",
          "type": "address"
        },
        {
          "indexed": false,
          "internalType": "uint256",
          "name": "tokenId",
          "type": "uint256"
        }
      ],
      "name": "LandMint",
      "type": "event"
    },
    {
      "anonymous": false,
      "inputs": [
        {
          "indexed": true,
          "internalType": "uint256",
          "name": "tokenId",
          "type": "uint256"
        },
        {
          "indexed": false,
          "internalType": "uint256",
          "name": "availableLevel",
          "type": "uint256"
        }
      ],
      "name": "LandUpgrade",
      "type": "event"
    },
    {
      "anonymous": false,
      "inputs": [
        {
          "indexed": false,
          "internalType": "uint256",
          "name": "levelIQCost",
          "type": "uint256"
        }
      ],
      "name": "LevelIQCost",
      "type": "event"
    },
    {
      "anonymous": false,
      "inputs": [
        {
          "indexed": true,
          "internalType": "bytes32",
          "name": "role",
          "type": "bytes32"
        },
        {
          "indexed": true,
          "internalType": "bytes32",
          "name": "previousAdminRole",
          "type": "bytes32"
        },
        {
          "indexed": true,
          "internalType": "bytes32",
          "name": "newAdminRole",
          "type": "bytes32"
        }
      ],
      "name": "RoleAdminChanged",
      "type": "event"
    },
    {
      "anonymous": false,
      "inputs": [
        {
          "indexed": true,
          "internalType": "bytes32",
          "name": "role",
          "type": "bytes32"
        },
        {
          "indexed": true,
          "internalType": "address",
          "name": "account",
          "type": "address"
        },
        {
          "indexed": true,
          "internalType": "address",
          "name": "sender",
          "type": "address"
        }
      ],
      "name": "RoleGranted",
      "type": "event"
    },
    {
      "anonymous": false,
      "inputs": [
        {
          "indexed": true,
          "internalType": "bytes32",
          "name": "role",
          "type": "bytes32"
        },
        {
          "indexed": true,
          "internalType": "address",
          "name": "account",
          "type": "address"
        },
        {
          "indexed": true,
          "internalType": "address",
          "name": "sender",
          "type": "address"
        }
      ],
      "name": "RoleRevoked",
      "type": "event"
    },
    {
      "anonymous": false,
      "inputs": [
        {
          "indexed": false,
          "internalType": "address",
          "name": "smolBrain",
          "type": "address"
        }
      ],
      "name": "SmolBrainSet",
      "type": "event"
    },
    {
      "anonymous": false,
      "inputs": [
        {
          "indexed": true,
          "internalType": "address",
          "name": "from",
          "type": "address"
        },
        {
          "indexed": true,
          "internalType": "address",
          "name": "to",
          "type": "address"
        },
        {
          "indexed": true,
          "internalType": "uint256",
          "name": "tokenId",
          "type": "uint256"
        }
      ],
      "name": "Transfer",
      "type": "event"
    },
    {
      "inputs": [],
      "name": "DEFAULT_ADMIN_ROLE",
      "outputs": [
        {
          "internalType": "bytes32",
          "name": "",
          "type": "bytes32"
        }
      ],
      "stateMutability": "view",
      "type": "function"
    },
    {
      "inputs": [],
      "name": "SMOLBRAIN_MINTER_ROLE",
      "outputs": [
        {
          "internalType": "bytes32",
          "name": "",
          "type": "bytes32"
        }
      ],
      "stateMutability": "view",
      "type": "function"
    },
    {
      "inputs": [],
      "name": "SMOLBRAIN_OWNER_ROLE",
      "outputs": [
        {
          "internalType": "bytes32",
          "name": "",
          "type": "bytes32"
        }
      ],
      "stateMutability": "view",
      "type": "function"
    },
    {
      "inputs": [
        {
          "internalType": "address",
          "name": "to",
          "type": "address"
        },
        {
          "internalType": "uint256",
          "name": "tokenId",
          "type": "uint256"
        }
      ],
      "name": "approve",
      "outputs": [],
      "stateMutability": "nonpayable",
      "type": "function"
    },
    {
      "inputs": [
        {
          "internalType": "address",
          "name": "owner",
          "type": "address"
        }
      ],
      "name": "balanceOf",
      "outputs": [
        {
          "internalType": "uint256",
          "name": "",
          "type": "uint256"
        }
      ],
      "stateMutability": "view",
      "type": "function"
    },
    {
      "inputs": [],
      "name": "baseURI",
      "outputs": [
        {
          "internalType": "string",
          "name": "",
          "type": "string"
        }
      ],
      "stateMutability": "view",
      "type": "function"
    },
    {
      "inputs": [
        {
          "internalType": "uint256",
          "name": "_tokenId",
          "type": "uint256"
        }
      ],
      "name": "canUpgrade",
      "outputs": [
        {
          "internalType": "bool",
          "name": "isUpgradeAvailable",
          "type": "bool"
        },
        {
          "internalType": "uint256",
          "name": "availableLevel",
          "type": "uint256"
        }
      ],
      "stateMutability": "view",
      "type": "function"
    },
    {
      "inputs": [
        {
          "internalType": "address",
          "name": "_owner",
          "type": "address"
        }
      ],
      "name": "findBiggestBrainIQ",
      "outputs": [
        {
          "internalType": "uint256",
          "name": "highestIQ",
          "type": "uint256"
        }
      ],
      "stateMutability": "view",
      "type": "function"
    },
    {
      "inputs": [
        {
          "internalType": "uint256",
          "name": "tokenId",
          "type": "uint256"
        }
      ],
      "name": "getApproved",
      "outputs": [
        {
          "internalType": "address",
          "name": "",
          "type": "address"
        }
      ],
      "stateMutability": "view",
      "type": "function"
    },
    {
      "inputs": [
        {
          "internalType": "bytes32",
          "name": "role",
          "type": "bytes32"
        }
      ],
      "name": "getRoleAdmin",
      "outputs": [
        {
          "internalType": "bytes32",
          "name": "",
          "type": "bytes32"
        }
      ],
      "stateMutability": "view",
      "type": "function"
    },
    {
      "inputs": [
        {
          "internalType": "address",
          "name": "_minter",
          "type": "address"
        }
      ],
      "name": "grantMinter",
      "outputs": [],
      "stateMutability": "nonpayable",
      "type": "function"
    },
    {
      "inputs": [
        {
          "internalType": "address",
          "name": "_owner",
          "type": "address"
        }
      ],
      "name": "grantOwner",
      "outputs": [],
      "stateMutability": "nonpayable",
      "type": "function"
    },
    {
      "inputs": [
        {
          "internalType": "bytes32",
          "name": "role",
          "type": "bytes32"
        },
        {
          "internalType": "address",
          "name": "account",
          "type": "address"
        }
      ],
      "name": "grantRole",
      "outputs": [],
      "stateMutability": "nonpayable",
      "type": "function"
    },
    {
      "inputs": [
        {
          "internalType": "bytes32",
          "name": "role",
          "type": "bytes32"
        },
        {
          "internalType": "address",
          "name": "account",
          "type": "address"
        }
      ],
      "name": "hasRole",
      "outputs": [
        {
          "internalType": "bool",
          "name": "",
          "type": "bool"
        }
      ],
      "stateMutability": "view",
      "type": "function"
    },
    {
      "inputs": [
        {
          "internalType": "address",
          "name": "owner",
          "type": "address"
        },
        {
          "internalType": "address",
          "name": "operator",
          "type": "address"
        }
      ],
      "name": "isApprovedForAll",
      "outputs": [
        {
          "internalType": "bool",
          "name": "",
          "type": "bool"
        }
      ],
      "stateMutability": "view",
      "type": "function"
    },
    {
      "inputs": [
        {
          "internalType": "address",
          "name": "_minter",
          "type": "address"
        }
      ],
      "name": "isMinter",
      "outputs": [
        {
          "internalType": "bool",
          "name": "",
          "type": "bool"
        }
      ],
      "stateMutability": "view",
      "type": "function"
    },
    {
      "inputs": [
        {
          "internalType": "address",
          "name": "_owner",
          "type": "address"
        }
      ],
      "name": "isOwner",
      "outputs": [
        {
          "internalType": "bool",
          "name": "",
          "type": "bool"
        }
      ],
      "stateMutability": "view",
      "type": "function"
    },
    {
      "inputs": [
        {
          "internalType": "uint256",
          "name": "",
          "type": "uint256"
        }
      ],
      "name": "landLevels",
      "outputs": [
        {
          "internalType": "uint256",
          "name": "",
          "type": "uint256"
        }
      ],
      "stateMutability": "view",
      "type": "function"
    },
    {
      "inputs": [],
      "name": "landMaxLevel",
      "outputs": [
        {
          "internalType": "uint256",
          "name": "",
          "type": "uint256"
        }
      ],
      "stateMutability": "view",
      "type": "function"
    },
    {
      "inputs": [],
      "name": "levelIQCost",
      "outputs": [
        {
          "internalType": "uint256",
          "name": "",
          "type": "uint256"
        }
      ],
      "stateMutability": "view",
      "type": "function"
    },
    {
      "inputs": [
        {
          "internalType": "address",
          "name": "_to",
          "type": "address"
        }
      ],
      "name": "mint",
      "outputs": [],
      "stateMutability": "nonpayable",
      "type": "function"
    },
    {
      "inputs": [],
      "name": "name",
      "outputs": [
        {
          "internalType": "string",
          "name": "",
          "type": "string"
        }
      ],
      "stateMutability": "view",
      "type": "function"
    },
    {
      "inputs": [
        {
          "internalType": "uint256",
          "name": "tokenId",
          "type": "uint256"
        }
      ],
      "name": "ownerOf",
      "outputs": [
        {
          "internalType": "address",
          "name": "",
          "type": "address"
        }
      ],
      "stateMutability": "view",
      "type": "function"
    },
    {
      "inputs": [
        {
          "internalType": "bytes32",
          "name": "role",
          "type": "bytes32"
        },
        {
          "internalType": "address",
          "name": "account",
          "type": "address"
        }
      ],
      "name": "renounceRole",
      "outputs": [],
      "stateMutability": "nonpayable",
      "type": "function"
    },
    {
      "inputs": [
        {
          "internalType": "bytes32",
          "name": "role",
          "type": "bytes32"
        },
        {
          "internalType": "address",
          "name": "account",
          "type": "address"
        }
      ],
      "name": "revokeRole",
      "outputs": [],
      "stateMutability": "nonpayable",
      "type": "function"
    },
    {
      "inputs": [
        {
          "internalType": "address",
          "name": "from",
          "type": "address"
        },
        {
          "internalType": "address",
          "name": "to",
          "type": "address"
        },
        {
          "internalType": "uint256",
          "name": "tokenId",
          "type": "uint256"
        }
      ],
      "name": "safeTransferFrom",
      "outputs": [],
      "stateMutability": "nonpayable",
      "type": "function"
    },
    {
      "inputs": [
        {
          "internalType": "address",
          "name": "from",
          "type": "address"
        },
        {
          "internalType": "address",
          "name": "to",
          "type": "address"
        },
        {
          "internalType": "uint256",
          "name": "tokenId",
          "type": "uint256"
        },
        {
          "internalType": "bytes",
          "name": "_data",
          "type": "bytes"
        }
      ],
      "name": "safeTransferFrom",
      "outputs": [],
      "stateMutability": "nonpayable",
      "type": "function"
    },
    {
      "inputs": [
        {
          "internalType": "address",
          "name": "operator",
          "type": "address"
        },
        {
          "internalType": "bool",
          "name": "approved",
          "type": "bool"
        }
      ],
      "name": "setApprovalForAll",
      "outputs": [],
      "stateMutability": "nonpayable",
      "type": "function"
    },
    {
      "inputs": [
        {
          "internalType": "string",
          "name": "_baseURItoSet",
          "type": "string"
        }
      ],
      "name": "setBaseURI",
      "outputs": [],
      "stateMutability": "nonpayable",
      "type": "function"
    },
    {
      "inputs": [
        {
          "internalType": "uint256",
          "name": "_levelIQCost",
          "type": "uint256"
        }
      ],
      "name": "setLevelIQCost",
      "outputs": [],
      "stateMutability": "nonpayable",
      "type": "function"
    },
    {
      "inputs": [
        {
          "internalType": "uint256",
          "name": "_landMaxLevel",
          "type": "uint256"
        }
      ],
      "name": "setMaxLevel",
      "outputs": [],
      "stateMutability": "nonpayable",
      "type": "function"
    },
    {
      "inputs": [
        {
          "internalType": "address",
          "name": "_smolBrain",
          "type": "address"
        }
      ],
      "name": "setSmolBrain",
      "outputs": [],
      "stateMutability": "nonpayable",
      "type": "function"
    },
    {
      "inputs": [],
      "name": "smolBrain",
      "outputs": [
        {
          "internalType": "contract SmolBrain",
          "name": "",
          "type": "address"
        }
      ],
      "stateMutability": "view",
      "type": "function"
    },
    {
      "inputs": [
        {
          "internalType": "bytes4",
          "name": "interfaceId",
          "type": "bytes4"
        }
      ],
      "name": "supportsInterface",
      "outputs": [
        {
          "internalType": "bool",
          "name": "",
          "type": "bool"
        }
      ],
      "stateMutability": "view",
      "type": "function"
    },
    {
      "inputs": [],
      "name": "symbol",
      "outputs": [
        {
          "internalType": "string",
          "name": "",
          "type": "string"
        }
      ],
      "stateMutability": "view",
      "type": "function"
    },
    {
      "inputs": [
        {
          "internalType": "uint256",
          "name": "index",
          "type": "uint256"
        }
      ],
      "name": "tokenByIndex",
      "outputs": [
        {
          "internalType": "uint256",
          "name": "",
          "type": "uint256"
        }
      ],
      "stateMutability": "view",
      "type": "function"
    },
    {
      "inputs": [
        {
          "internalType": "address",
          "name": "owner",
          "type": "address"
        },
        {
          "internalType": "uint256",
          "name": "index",
          "type": "uint256"
        }
      ],
      "name": "tokenOfOwnerByIndex",
      "outputs": [
        {
          "internalType": "uint256",
          "name": "",
          "type": "uint256"
        }
      ],
      "stateMutability": "view",
      "type": "function"
    },
    {
      "inputs": [
        {
          "internalType": "uint256",
          "name": "_tokenId",
          "type": "uint256"
        }
      ],
      "name": "tokenURI",
      "outputs": [
        {
          "internalType": "string",
          "name": "",
          "type": "string"
        }
      ],
      "stateMutability": "view",
      "type": "function"
    },
    {
      "inputs": [],
      "name": "totalSupply",
      "outputs": [
        {
          "internalType": "uint256",
          "name": "",
          "type": "uint256"
        }
      ],
      "stateMutability": "view",
      "type": "function"
    },
    {
      "inputs": [
        {
          "internalType": "address",
          "name": "from",
          "type": "address"
        },
        {
          "internalType": "address",
          "name": "to",
          "type": "address"
        },
        {
          "internalType": "uint256",
          "name": "tokenId",
          "type": "uint256"
        }
      ],
      "name": "transferFrom",
      "outputs": [],
      "stateMutability": "nonpayable",
      "type": "function"
    },
    {
      "inputs": [
        {
          "internalType": "uint256",
          "name": "_tokenId",
          "type": "uint256"
        }
      ],
      "name": "upgrade",
      "outputs": [],
      "stateMutability": "nonpayable",
      "type": "function"
    },
    {
      "inputs": [
        {
          "internalType": "uint256",
          "name": "_tokenId",
          "type": "uint256"
        }
      ],
      "name": "upgradeSafe",
      "outputs": [
        {
          "internalType": "bool",
          "name": "",
          "type": "bool"
        }
      ],
      "stateMutability": "nonpayable",
      "type": "function"
    }
  ],
  "transactionHash": "0x7e6f6387dde18bd940cdb8394237cbb6bccbf15b4cae0710b8520b0e34c69570",
  "args": [],
  "solcInputHash": "46ff15ae2ecfdaf8bc741a1f67ab9209",
  "bytecode": "0x60806040523480156200001157600080fd5b506040518060400160405280600f81526020016e14db5bdb08109c985a5b8813185b99608a1b8152506040518060400160405280600d81526020016c14db5bdb109c985a5b93185b99609a1b8152506200008160008051602062002cdd833981519152806200010b60201b60201c565b620000bc7f4ace3e268e2421ceda36da4af4120747b9ba01b2932e46e900cf59bc0826464260008051602062002cdd8339815191526200010b565b620000d760008051602062002cdd8339815191523362000156565b8151620000ec90600190602085019062000206565b5080516200010290600290602084019062000206565b505050620002e9565b600082815260208190526040808220600101805490849055905190918391839186917fbd79b86ffe0ab8e8776151514217cd7cacd52c909f66475c3af44e129f0b00ff9190a4505050565b62000162828262000166565b5050565b6000828152602081815260408083206001600160a01b038516845290915290205460ff1662000162576000828152602081815260408083206001600160a01b03851684529091529020805460ff19166001179055620001c23390565b6001600160a01b0316816001600160a01b0316837f2f8788117e7eff1d82e926ec794901d17c78024a50270940304540a733656f0d60405160405180910390a45050565b8280546200021490620002ac565b90600052602060002090601f01602090048101928262000238576000855562000283565b82601f106200025357805160ff191683800117855562000283565b8280016001018555821562000283579182015b828111156200028357825182559160200191906001019062000266565b506200029192915062000295565b5090565b5b8082111562000291576000815560010162000296565b600181811c90821680620002c157607f821691505b60208210811415620002e357634e487b7160e01b600052602260045260246000fd5b50919050565b6129e480620002f96000396000f3fe608060405234801561001057600080fd5b506004361061025e5760003560e01c80636d6e3bf011610146578063aa271e1a116100c3578063d57cd14511610087578063d57cd1451461054b578063dc9780591461055e578063dcaefbfd14610571578063e985e9c514610584578063f298f9c5146105c0578063f527e29a146105c957600080fd5b8063aa271e1a146104ec578063b88d4fde146104ff578063c57cbed514610512578063c87b56dd14610525578063d547741f1461053857600080fd5b806395d89b411161010a57806395d89b411461048f5780639f04213614610497578063a217fddf146104aa578063a22cb465146104b2578063a48e0051146104c557600080fd5b80636d6e3bf01461042d57806370a082311461043657806381151e671461044957806391d148541461045c57806391fb1ffe1461046f57600080fd5b80632f54bf6e116101df57806345977d03116101a357806345977d03146103c65780634f6ccce7146103d957806355f804b3146103ec5780636352211e146103ff5780636a627842146104125780636c0360eb1461042557600080fd5b80632f54bf6e146103675780632f745c591461037a578063344f1ba51461038d57806336568abe146103a057806342842e0e146103b357600080fd5b806318160ddd1161022657806318160ddd1461030357806323b872dd1461030b578063248a9ca31461031e578063261707fa146103415780632f2ff15d1461035457600080fd5b806301ffc9a71461026357806302ed29e01461028b57806306fdde03146102ae578063081812fc146102c3578063095ea7b3146102ee575b600080fd5b6102766102713660046124bf565b6105f3565b60405190151581526020015b60405180910390f35b6102a060008051602061298f83398151915281565b604051908152602001610282565b6102b6610613565b60405161028291906126fc565b6102d66102d1366004612483565b6106a5565b6040516001600160a01b039091168152602001610282565b6103016102fc366004612459565b61073f565b005b6009546102a0565b610301610319366004612365565b610855565b6102a061032c366004612483565b60009081526020819052604090206001015490565b61030161034f366004612317565b610886565b61030161036236600461249c565b6108b3565b610276610375366004612317565b6108d9565b6102a0610388366004612459565b6108f3565b61030161039b366004612483565b610989565b6103016103ae36600461249c565b6109f9565b6103016103c1366004612365565b610a77565b6103016103d4366004612483565b610a92565b6102a06103e7366004612483565b610ae7565b6103016103fa3660046124f9565b610b7a565b6102d661040d366004612483565b610bc1565b610301610420366004612317565b610c38565b6102b6610d05565b6102a0600e5481565b6102a0610444366004612317565b610d93565b610276610457366004612483565b610e1a565b61027661046a36600461249c565b610e87565b6102a061047d366004612483565b600f6020526000908152604090205481565b6102b6610eb0565b6103016104a5366004612317565b610ebf565b6102a0600081565b6103016104c036600461241d565b610f41565b6102a07f4ace3e268e2421ceda36da4af4120747b9ba01b2932e46e900cf59bc0826464281565b6102766104fa366004612317565b611006565b61030161050d3660046123a1565b611032565b6010546102d6906001600160a01b031681565b6102b6610533366004612483565b61106a565b61030161054636600461249c565b61114b565b610301610559366004612483565b611171565b61030161056c366004612317565b6111da565b6102a061057f366004612317565b6111f2565b610276610592366004612332565b6001600160a01b03918216600090815260066020908152604080832093909416825291909152205460ff1690565b6102a0600d5481565b6105dc6105d7366004612483565b6113b1565b604080519215158352602083019190915201610282565b60006105fe826114aa565b8061060d575061060d826114cf565b92915050565b606060018054610622906128a0565b80601f016020809104026020016040519081016040528092919081815260200182805461064e906128a0565b801561069b5780601f106106705761010080835404028352916020019161069b565b820191906000526020600020905b81548152906001019060200180831161067e57829003601f168201915b5050505050905090565b6000818152600360205260408120546001600160a01b03166107235760405162461bcd60e51b815260206004820152602c60248201527f4552433732313a20617070726f76656420717565727920666f72206e6f6e657860448201526b34b9ba32b73a103a37b5b2b760a11b60648201526084015b60405180910390fd5b506000908152600560205260409020546001600160a01b031690565b600061074a82610bc1565b9050806001600160a01b0316836001600160a01b031614156107b85760405162461bcd60e51b815260206004820152602160248201527f4552433732313a20617070726f76616c20746f2063757272656e74206f776e656044820152603960f91b606482015260840161071a565b336001600160a01b03821614806107d457506107d48133610592565b6108465760405162461bcd60e51b815260206004820152603860248201527f4552433732313a20617070726f76652063616c6c6572206973206e6f74206f7760448201527f6e6572206e6f7220617070726f76656420666f7220616c6c0000000000000000606482015260840161071a565b6108508383611504565b505050565b61085f3382611572565b61087b5760405162461bcd60e51b815260040161071a906127aa565b610850838383611669565b6108b07f4ace3e268e2421ceda36da4af4120747b9ba01b2932e46e900cf59bc08264642826108b3565b50565b6000828152602081905260409020600101546108cf8133611814565b6108508383611878565b600061060d60008051602061298f83398151915283610e87565b60006108fe83610d93565b82106109605760405162461bcd60e51b815260206004820152602b60248201527f455243373231456e756d657261626c653a206f776e657220696e646578206f7560448201526a74206f6620626f756e647360a81b606482015260840161071a565b506001600160a01b03919091166000908152600760209081526040808320938352929052205490565b6109a160008051602061298f83398151915233610e87565b6109bd5760405162461bcd60e51b815260040161071a90612761565b600d8190556040518181527f2f61ebe91f71a0e705900e252d50f1e06077072fb7f9f7d06a4d609059bb3f0d906020015b60405180910390a150565b6001600160a01b0381163314610a695760405162461bcd60e51b815260206004820152602f60248201527f416363657373436f6e74726f6c3a2063616e206f6e6c792072656e6f756e636560448201526e103937b632b9903337b91039b2b63360891b606482015260840161071a565b610a7382826118fc565b5050565b61085083838360405180602001604052806000815250611032565b610a9b81610e1a565b6108b05760405162461bcd60e51b815260206004820152601860248201527f4c616e643a206e6f7468696e6720746f20757067726164650000000000000000604482015260640161071a565b6000610af260095490565b8210610b555760405162461bcd60e51b815260206004820152602c60248201527f455243373231456e756d657261626c653a20676c6f62616c20696e646578206f60448201526b7574206f6620626f756e647360a01b606482015260840161071a565b60098281548110610b6857610b6861294c565b90600052602060002001549050919050565b610b9260008051602061298f83398151915233610e87565b610bae5760405162461bcd60e51b815260040161071a90612761565b8051610a7390600c9060208401906121ec565b6000818152600360205260408120546001600160a01b03168061060d5760405162461bcd60e51b815260206004820152602960248201527f4552433732313a206f776e657220717565727920666f72206e6f6e657869737460448201526832b73a103a37b5b2b760b91b606482015260840161071a565b610c4133611006565b610ca05760405162461bcd60e51b815260206004820152602a60248201527f4d696e746572436f6e74726f6c3a206e6f74206120534d4f4c425241494e5f4d604482015269494e5445525f524f4c4560b01b606482015260840161071a565b806001600160a01b03167fa28fb460c72a683a467d473a49feb6520de6c7df6f397c7e986d39a44c062346610cd4600b5490565b60405190815260200160405180910390a2610cf781610cf2600b5490565b611961565b6108b0600b80546001019055565b600c8054610d12906128a0565b80601f0160208091040260200160405190810160405280929190818152602001828054610d3e906128a0565b8015610d8b5780601f10610d6057610100808354040283529160200191610d8b565b820191906000526020600020905b815481529060010190602001808311610d6e57829003601f168201915b505050505081565b60006001600160a01b038216610dfe5760405162461bcd60e51b815260206004820152602a60248201527f4552433732313a2062616c616e636520717565727920666f7220746865207a65604482015269726f206164647265737360b01b606482015260840161071a565b506001600160a01b031660009081526004602052604090205490565b6000806000610e28846113b1565b915091508115610e80576000848152600f6020526040908190208290555184907f8ac99fb4a67d192b8aff647b8a1d9d624e78c092a12085c062fbce1d2ce740c490610e779084815260200190565b60405180910390a25b5092915050565b6000918252602082815260408084206001600160a01b0393909316845291905290205460ff1690565b606060028054610622906128a0565b610ed760008051602061298f83398151915233610e87565b610ef35760405162461bcd60e51b815260040161071a90612761565b601080546001600160a01b0319166001600160a01b0383169081179091556040519081527f12f789c3a21da2a95325bae92834ecef6381e3e8af16ab037239c8f5f9ae6472906020016109ee565b6001600160a01b038216331415610f9a5760405162461bcd60e51b815260206004820152601960248201527f4552433732313a20617070726f766520746f2063616c6c657200000000000000604482015260640161071a565b3360008181526006602090815260408083206001600160a01b03871680855290835292819020805460ff191686151590811790915590519081529192917f17307eab39ab6107e8899845ad3d59bd9653f200f220920489ca2b5937696c31910160405180910390a35050565b600061060d7f4ace3e268e2421ceda36da4af4120747b9ba01b2932e46e900cf59bc0826464283610e87565b61103c3383611572565b6110585760405162461bcd60e51b815260040161071a906127aa565b6110648484848461197b565b50505050565b6000818152600360205260409020546060906001600160a01b03166110df5760405162461bcd60e51b815260206004820152602560248201527f4c616e643a2055524920717565727920666f72206e6f6e6578697374656e74206044820152643a37b5b2b760d91b606482015260840161071a565b60006110ea836113b1565b9150506000600c80546110fc906128a0565b9050116111185760405180602001604052806000815250611144565b600c611123826119ae565b6040516020016111349291906125a3565b6040516020818303038152906040525b9392505050565b6000828152602081905260409020600101546111678133611814565b61085083836118fc565b61118960008051602061298f83398151915233610e87565b6111a55760405162461bcd60e51b815260040161071a90612761565b600e8190556040518181527f8b417e0974ccf6cbb52930652bacdfadbcffd507164c6d693038e721f05138a6906020016109ee565b6108b060008051602061298f833981519152826108b3565b6010546040516370a0823160e01b81526001600160a01b03838116600483015260009283929116906370a082319060240160206040518083038186803b15801561123b57600080fd5b505afa15801561124f573d6000803e3d6000fd5b505050506040513d601f19601f820116820180604052508101906112739190612542565b905060005b818110156113aa57601054604051632f745c5960e01b81526001600160a01b038681166004830152602482018490526000921690632f745c599060440160206040518083038186803b1580156112cd57600080fd5b505afa1580156112e1573d6000803e3d6000fd5b505050506040513d601f19601f820116820180604052508101906113059190612542565b60105460405163861b3fe760e01b8152600481018390529192506000916001600160a01b039091169063861b3fe79060240160206040518083038186803b15801561134f57600080fd5b505afa158015611363573d6000803e3d6000fd5b505050506040513d601f19601f820116820180604052508101906113879190612542565b905084811115611395578094505b505080806113a2906128db565b915050611278565b5050919050565b60008060006113c261057f85610bc1565b90506000601060009054906101000a90046001600160a01b03166001600160a01b0316630ec3d6346040518163ffffffff1660e01b815260040160206040518083038186803b15801561141457600080fd5b505afa158015611428573d6000803e3d6000fd5b505050506040513d601f19601f8201168201806040525081019061144c9190612542565b90506000611469600e54836114619190612813565b600d54611aac565b9050611482600e548461147c9190612813565b82611aac565b6000878152600f6020526040902054909450848110156114a157600195505b50505050915091565b60006001600160e01b0319821663780e9d6360e01b148061060d575061060d82611ac2565b60006001600160e01b03198216637965db0b60e01b148061060d57506301ffc9a760e01b6001600160e01b031983161461060d565b600081815260056020526040902080546001600160a01b0319166001600160a01b038416908117909155819061153982610bc1565b6001600160a01b03167f8c5be1e5ebec7d5bd14f71427d1e84f3dd0314c0f7b2291e5b200ac8c7c3b92560405160405180910390a45050565b6000818152600360205260408120546001600160a01b03166115eb5760405162461bcd60e51b815260206004820152602c60248201527f4552433732313a206f70657261746f7220717565727920666f72206e6f6e657860448201526b34b9ba32b73a103a37b5b2b760a11b606482015260840161071a565b60006115f683610bc1565b9050806001600160a01b0316846001600160a01b031614806116315750836001600160a01b0316611626846106a5565b6001600160a01b0316145b8061166157506001600160a01b0380821660009081526006602090815260408083209388168352929052205460ff165b949350505050565b826001600160a01b031661167c82610bc1565b6001600160a01b0316146116e45760405162461bcd60e51b815260206004820152602960248201527f4552433732313a207472616e73666572206f6620746f6b656e2074686174206960448201526839903737ba1037bbb760b91b606482015260840161071a565b6001600160a01b0382166117465760405162461bcd60e51b8152602060048201526024808201527f4552433732313a207472616e7366657220746f20746865207a65726f206164646044820152637265737360e01b606482015260840161071a565b611751838383611b01565b61175c600082611504565b6001600160a01b0383166000908152600460205260408120805460019290611785908490612846565b90915550506001600160a01b03821660009081526004602052604081208054600192906117b39084906127fb565b909155505060008181526003602052604080822080546001600160a01b0319166001600160a01b0386811691821790925591518493918716917fddf252ad1be2c89b69c2b068fc378daa952ba7f163c4a11628f55a4df523b3ef91a4505050565b61181e8282610e87565b610a7357611836816001600160a01b03166014611b7a565b611841836020611b7a565b60405160200161185292919061264a565b60408051601f198184030181529082905262461bcd60e51b825261071a916004016126fc565b6118828282610e87565b610a73576000828152602081815260408083206001600160a01b03851684529091529020805460ff191660011790556118b83390565b6001600160a01b0316816001600160a01b0316837f2f8788117e7eff1d82e926ec794901d17c78024a50270940304540a733656f0d60405160405180910390a45050565b6119068282610e87565b15610a73576000828152602081815260408083206001600160a01b0385168085529252808320805460ff1916905551339285917ff6391f5c32d9c69d2a47ea670b442974b53935d1edc7fd64eb21e047a839171b9190a45050565b610a73828260405180602001604052806000815250611d16565b611986848484611669565b61199284848484611d49565b6110645760405162461bcd60e51b815260040161071a9061270f565b6060816119d25750506040805180820190915260018152600360fc1b602082015290565b8160005b81156119fc57806119e6816128db565b91506119f59050600a83612813565b91506119d6565b60008167ffffffffffffffff811115611a1757611a17612962565b6040519080825280601f01601f191660200182016040528015611a41576020820181803683370190505b5090505b841561166157611a56600183612846565b9150611a63600a866128f6565b611a6e9060306127fb565b60f81b818381518110611a8357611a8361294c565b60200101906001600160f81b031916908160001a905350611aa5600a86612813565b9450611a45565b6000818310611abb5781611144565b5090919050565b60006001600160e01b031982166380ac58cd60e01b14806105fe57506001600160e01b03198216635b5e139f60e01b148061060d575061060d826114cf565b611b0c838383611e56565b611b1582610d93565b15611b625760405162461bcd60e51b815260206004820152601b60248201527f4c616e643a2063616e206f776e206f6e6c79206f6e65206c616e640000000000604482015260640161071a565b6001600160a01b038316156108505761106481610e1a565b60606000611b89836002612827565b611b949060026127fb565b67ffffffffffffffff811115611bac57611bac612962565b6040519080825280601f01601f191660200182016040528015611bd6576020820181803683370190505b509050600360fc1b81600081518110611bf157611bf161294c565b60200101906001600160f81b031916908160001a905350600f60fb1b81600181518110611c2057611c2061294c565b60200101906001600160f81b031916908160001a9053506000611c44846002612827565b611c4f9060016127fb565b90505b6001811115611cc7576f181899199a1a9b1b9c1cb0b131b232b360811b85600f1660108110611c8357611c8361294c565b1a60f81b828281518110611c9957611c9961294c565b60200101906001600160f81b031916908160001a90535060049490941c93611cc081612889565b9050611c52565b5083156111445760405162461bcd60e51b815260206004820181905260248201527f537472696e67733a20686578206c656e67746820696e73756666696369656e74604482015260640161071a565b611d208383611f0e565b611d2d6000848484611d49565b6108505760405162461bcd60e51b815260040161071a9061270f565b60006001600160a01b0384163b15611e4b57604051630a85bd0160e11b81526001600160a01b0385169063150b7a0290611d8d9033908990889088906004016126bf565b602060405180830381600087803b158015611da757600080fd5b505af1925050508015611dd7575060408051601f3d908101601f19168201909252611dd4918101906124dc565b60015b611e31573d808015611e05576040519150601f19603f3d011682016040523d82523d6000602084013e611e0a565b606091505b508051611e295760405162461bcd60e51b815260040161071a9061270f565b805181602001fd5b6001600160e01b031916630a85bd0160e11b149050611661565b506001949350505050565b6001600160a01b038316611eb157611eac81600980546000838152600a60205260408120829055600182018355919091527f6e1540171b6c0c960b71a7020d9f60077f6af931a8bbf590da0223dacf75c7af0155565b611ed4565b816001600160a01b0316836001600160a01b031614611ed457611ed4838261205c565b6001600160a01b038216611eeb57610850816120f9565b826001600160a01b0316826001600160a01b0316146108505761085082826121a8565b6001600160a01b038216611f645760405162461bcd60e51b815260206004820181905260248201527f4552433732313a206d696e7420746f20746865207a65726f2061646472657373604482015260640161071a565b6000818152600360205260409020546001600160a01b031615611fc95760405162461bcd60e51b815260206004820152601c60248201527f4552433732313a20746f6b656e20616c7265616479206d696e74656400000000604482015260640161071a565b611fd560008383611b01565b6001600160a01b0382166000908152600460205260408120805460019290611ffe9084906127fb565b909155505060008181526003602052604080822080546001600160a01b0319166001600160a01b03861690811790915590518392907fddf252ad1be2c89b69c2b068fc378daa952ba7f163c4a11628f55a4df523b3ef908290a45050565b6000600161206984610d93565b6120739190612846565b6000838152600860205260409020549091508082146120c6576001600160a01b03841660009081526007602090815260408083208584528252808320548484528184208190558352600890915290208190555b5060009182526008602090815260408084208490556001600160a01b039094168352600781528383209183525290812055565b60095460009061210b90600190612846565b6000838152600a6020526040812054600980549394509092849081106121335761213361294c565b9060005260206000200154905080600983815481106121545761215461294c565b6000918252602080832090910192909255828152600a9091526040808220849055858252812055600980548061218c5761218c612936565b6001900381819060005260206000200160009055905550505050565b60006121b383610d93565b6001600160a01b039093166000908152600760209081526040808320868452825280832085905593825260089052919091209190915550565b8280546121f8906128a0565b90600052602060002090601f01602090048101928261221a5760008555612260565b82601f1061223357805160ff1916838001178555612260565b82800160010185558215612260579182015b82811115612260578251825591602001919060010190612245565b5061226c929150612270565b5090565b5b8082111561226c5760008155600101612271565b600067ffffffffffffffff808411156122a0576122a0612962565b604051601f8501601f19908116603f011681019082821181831017156122c8576122c8612962565b816040528093508581528686860111156122e157600080fd5b858560208301376000602087830101525050509392505050565b80356001600160a01b038116811461231257600080fd5b919050565b60006020828403121561232957600080fd5b611144826122fb565b6000806040838503121561234557600080fd5b61234e836122fb565b915061235c602084016122fb565b90509250929050565b60008060006060848603121561237a57600080fd5b612383846122fb565b9250612391602085016122fb565b9150604084013590509250925092565b600080600080608085870312156123b757600080fd5b6123c0856122fb565b93506123ce602086016122fb565b925060408501359150606085013567ffffffffffffffff8111156123f157600080fd5b8501601f8101871361240257600080fd5b61241187823560208401612285565b91505092959194509250565b6000806040838503121561243057600080fd5b612439836122fb565b91506020830135801515811461244e57600080fd5b809150509250929050565b6000806040838503121561246c57600080fd5b612475836122fb565b946020939093013593505050565b60006020828403121561249557600080fd5b5035919050565b600080604083850312156124af57600080fd5b8235915061235c602084016122fb565b6000602082840312156124d157600080fd5b813561114481612978565b6000602082840312156124ee57600080fd5b815161114481612978565b60006020828403121561250b57600080fd5b813567ffffffffffffffff81111561252257600080fd5b8201601f8101841361253357600080fd5b61166184823560208401612285565b60006020828403121561255457600080fd5b5051919050565b6000815180845261257381602086016020860161285d565b601f01601f19169290920160200192915050565b6000815161259981856020860161285d565b9290920192915050565b600080845481600182811c9150808316806125bf57607f831692505b60208084108214156125df57634e487b7160e01b86526022600452602486fd5b8180156125f3576001811461260457612631565b60ff19861689528489019650612631565b60008b81526020902060005b868110156126295781548b820152908501908301612610565b505084890196505b5050505050506126418185612587565b95945050505050565b7f416363657373436f6e74726f6c3a206163636f756e742000000000000000000081526000835161268281601785016020880161285d565b7001034b99036b4b9b9b4b733903937b6329607d1b60179184019182015283516126b381602884016020880161285d565b01602801949350505050565b6001600160a01b03858116825284166020820152604081018390526080606082018190526000906126f29083018461255b565b9695505050505050565b602081526000611144602083018461255b565b60208082526032908201527f4552433732313a207472616e7366657220746f206e6f6e20455243373231526560408201527131b2b4bb32b91034b6b83632b6b2b73a32b960711b606082015260800190565b60208082526029908201527f4d696e746572436f6e74726f6c3a206e6f74206120534d4f4c425241494e5f4f604082015268574e45525f524f4c4560b81b606082015260800190565b60208082526031908201527f4552433732313a207472616e736665722063616c6c6572206973206e6f74206f6040820152701ddb995c881b9bdc88185c1c1c9bdd9959607a1b606082015260800190565b6000821982111561280e5761280e61290a565b500190565b60008261282257612822612920565b500490565b60008160001904831182151516156128415761284161290a565b500290565b6000828210156128585761285861290a565b500390565b60005b83811015612878578181015183820152602001612860565b838111156110645750506000910152565b6000816128985761289861290a565b506000190190565b600181811c908216806128b457607f821691505b602082108114156128d557634e487b7160e01b600052602260045260246000fd5b50919050565b60006000198214156128ef576128ef61290a565b5060010190565b60008261290557612905612920565b500690565b634e487b7160e01b600052601160045260246000fd5b634e487b7160e01b600052601260045260246000fd5b634e487b7160e01b600052603160045260246000fd5b634e487b7160e01b600052603260045260246000fd5b634e487b7160e01b600052604160045260246000fd5b6001600160e01b0319811681146108b057600080fdfecffa9b50753c7b5036f84470434f5fc280bacb0c75da644f758e47448764b1fda264697066735822122061404e38f6f96bc9670b264ca0f6110a7cc8a485311942deb9dfbd95c7a05e0f64736f6c63430008070033cffa9b50753c7b5036f84470434f5fc280bacb0c75da644f758e47448764b1fd",
  "devdoc": {
    "kind": "dev",
    "methods": {
      "approve(address,uint256)": {
        "details": "See {IERC721-approve}."
      },
      "balanceOf(address)": {
        "details": "See {IERC721-balanceOf}."
      },
      "canUpgrade(uint256)": {
        "params": {
          "_tokenId": "tokenId of the land"
        },
        "returns": {
          "availableLevel": "what level can land be upgraded to",
          "isUpgradeAvailable": "true if higher level is available"
        }
      },
      "findBiggestBrainIQ(address)": {
        "params": {
          "_owner": "owner of the land"
        },
        "returns": {
          "highestIQ": "IQ of the biggest brain"
        }
      },
      "getApproved(uint256)": {
        "details": "See {IERC721-getApproved}."
      },
      "getRoleAdmin(bytes32)": {
        "details": "Returns the admin role that controls `role`. See {grantRole} and {revokeRole}. To change a role's admin, use {_setRoleAdmin}."
      },
      "grantRole(bytes32,address)": {
        "details": "Grants `role` to `account`. If `account` had not been already granted `role`, emits a {RoleGranted} event. Requirements: - the caller must have ``role``'s admin role."
      },
      "hasRole(bytes32,address)": {
        "details": "Returns `true` if `account` has been granted `role`."
      },
      "isApprovedForAll(address,address)": {
        "details": "See {IERC721-isApprovedForAll}."
      },
      "name()": {
        "details": "See {IERC721Metadata-name}."
      },
      "ownerOf(uint256)": {
        "details": "See {IERC721-ownerOf}."
      },
      "renounceRole(bytes32,address)": {
        "details": "Revokes `role` from the calling account. Roles are often managed via {grantRole} and {revokeRole}: this function's purpose is to provide a mechanism for accounts to lose their privileges if they are compromised (such as when a trusted device is misplaced). If the calling account had been granted `role`, emits a {RoleRevoked} event. Requirements: - the caller must be `account`."
      },
      "revokeRole(bytes32,address)": {
        "details": "Revokes `role` from `account`. If `account` had been granted `role`, emits a {RoleRevoked} event. Requirements: - the caller must have ``role``'s admin role."
      },
      "safeTransferFrom(address,address,uint256)": {
        "details": "See {IERC721-safeTransferFrom}."
      },
      "safeTransferFrom(address,address,uint256,bytes)": {
        "details": "See {IERC721-safeTransferFrom}."
      },
      "setApprovalForAll(address,bool)": {
        "details": "See {IERC721-setApprovalForAll}."
      },
      "symbol()": {
        "details": "See {IERC721Metadata-symbol}."
      },
      "tokenByIndex(uint256)": {
        "details": "See {IERC721Enumerable-tokenByIndex}."
      },
      "tokenOfOwnerByIndex(address,uint256)": {
        "details": "See {IERC721Enumerable-tokenOfOwnerByIndex}."
      },
      "totalSupply()": {
        "details": "See {IERC721Enumerable-totalSupply}."
      },
      "transferFrom(address,address,uint256)": {
        "details": "See {IERC721-transferFrom}."
      },
      "upgrade(uint256)": {
        "params": {
          "_tokenId": "tokenId of the land"
        }
      }
    },
    "stateVariables": {
      "landLevels": {
        "details": "tokenId => land level"
      },
      "landMaxLevel": {
        "details": "18 decimals"
      },
      "levelIQCost": {
        "details": "18 decimals"
      }
    },
    "version": 1
  },
  "userdoc": {
    "kind": "user",
    "methods": {},
    "version": 1
  },
  "storageLayout": {
    "storage": [
      {
        "astId": 24,
        "contract": "contracts/Land.sol:Land",
        "label": "_roles",
        "offset": 0,
        "slot": "0",
        "type": "t_mapping(t_bytes32,t_struct(RoleData)19_storage)"
      },
      {
        "astId": 509,
        "contract": "contracts/Land.sol:Land",
        "label": "_name",
        "offset": 0,
        "slot": "1",
        "type": "t_string_storage"
      },
      {
        "astId": 511,
        "contract": "contracts/Land.sol:Land",
        "label": "_symbol",
        "offset": 0,
        "slot": "2",
        "type": "t_string_storage"
      },
      {
        "astId": 515,
        "contract": "contracts/Land.sol:Land",
        "label": "_owners",
        "offset": 0,
        "slot": "3",
        "type": "t_mapping(t_uint256,t_address)"
      },
      {
        "astId": 519,
        "contract": "contracts/Land.sol:Land",
        "label": "_balances",
        "offset": 0,
        "slot": "4",
        "type": "t_mapping(t_address,t_uint256)"
      },
      {
        "astId": 523,
        "contract": "contracts/Land.sol:Land",
        "label": "_tokenApprovals",
        "offset": 0,
        "slot": "5",
        "type": "t_mapping(t_uint256,t_address)"
      },
      {
        "astId": 529,
        "contract": "contracts/Land.sol:Land",
        "label": "_operatorApprovals",
        "offset": 0,
        "slot": "6",
        "type": "t_mapping(t_address,t_mapping(t_address,t_bool))"
      },
      {
        "astId": 1448,
        "contract": "contracts/Land.sol:Land",
        "label": "_ownedTokens",
        "offset": 0,
        "slot": "7",
        "type": "t_mapping(t_address,t_mapping(t_uint256,t_uint256))"
      },
      {
        "astId": 1452,
        "contract": "contracts/Land.sol:Land",
        "label": "_ownedTokensIndex",
        "offset": 0,
        "slot": "8",
        "type": "t_mapping(t_uint256,t_uint256)"
      },
      {
        "astId": 1455,
        "contract": "contracts/Land.sol:Land",
        "label": "_allTokens",
        "offset": 0,
        "slot": "9",
        "type": "t_array(t_uint256)dyn_storage"
      },
      {
        "astId": 1459,
        "contract": "contracts/Land.sol:Land",
        "label": "_allTokensIndex",
        "offset": 0,
        "slot": "10",
        "type": "t_mapping(t_uint256,t_uint256)"
      },
      {
        "astId": 2642,
        "contract": "contracts/Land.sol:Land",
        "label": "_tokenIdTracker",
        "offset": 0,
        "slot": "11",
        "type": "t_struct(Counter)2154_storage"
      },
      {
        "astId": 2644,
        "contract": "contracts/Land.sol:Land",
        "label": "baseURI",
        "offset": 0,
        "slot": "12",
        "type": "t_string_storage"
      },
      {
        "astId": 2647,
        "contract": "contracts/Land.sol:Land",
        "label": "landMaxLevel",
        "offset": 0,
        "slot": "13",
        "type": "t_uint256"
      },
      {
        "astId": 2650,
        "contract": "contracts/Land.sol:Land",
        "label": "levelIQCost",
        "offset": 0,
        "slot": "14",
        "type": "t_uint256"
      },
      {
        "astId": 2655,
        "contract": "contracts/Land.sol:Land",
        "label": "landLevels",
        "offset": 0,
        "slot": "15",
        "type": "t_mapping(t_uint256,t_uint256)"
      },
      {
        "astId": 2658,
        "contract": "contracts/Land.sol:Land",
        "label": "smolBrain",
        "offset": 0,
        "slot": "16",
        "type": "t_contract(SmolBrain)4190"
      }
    ],
    "types": {
      "t_address": {
        "encoding": "inplace",
        "label": "address",
        "numberOfBytes": "20"
      },
      "t_array(t_uint256)dyn_storage": {
        "base": "t_uint256",
        "encoding": "dynamic_array",
        "label": "uint256[]",
        "numberOfBytes": "32"
      },
      "t_bool": {
        "encoding": "inplace",
        "label": "bool",
        "numberOfBytes": "1"
      },
      "t_bytes32": {
        "encoding": "inplace",
        "label": "bytes32",
        "numberOfBytes": "32"
      },
      "t_contract(SmolBrain)4190": {
        "encoding": "inplace",
        "label": "contract SmolBrain",
        "numberOfBytes": "20"
      },
      "t_mapping(t_address,t_bool)": {
        "encoding": "mapping",
        "key": "t_address",
        "label": "mapping(address => bool)",
        "numberOfBytes": "32",
        "value": "t_bool"
      },
      "t_mapping(t_address,t_mapping(t_address,t_bool))": {
        "encoding": "mapping",
        "key": "t_address",
        "label": "mapping(address => mapping(address => bool))",
        "numberOfBytes": "32",
        "value": "t_mapping(t_address,t_bool)"
      },
      "t_mapping(t_address,t_mapping(t_uint256,t_uint256))": {
        "encoding": "mapping",
        "key": "t_address",
        "label": "mapping(address => mapping(uint256 => uint256))",
        "numberOfBytes": "32",
        "value": "t_mapping(t_uint256,t_uint256)"
      },
      "t_mapping(t_address,t_uint256)": {
        "encoding": "mapping",
        "key": "t_address",
        "label": "mapping(address => uint256)",
        "numberOfBytes": "32",
        "value": "t_uint256"
      },
      "t_mapping(t_bytes32,t_struct(RoleData)19_storage)": {
        "encoding": "mapping",
        "key": "t_bytes32",
        "label": "mapping(bytes32 => struct AccessControl.RoleData)",
        "numberOfBytes": "32",
        "value": "t_struct(RoleData)19_storage"
      },
      "t_mapping(t_uint256,t_address)": {
        "encoding": "mapping",
        "key": "t_uint256",
        "label": "mapping(uint256 => address)",
        "numberOfBytes": "32",
        "value": "t_address"
      },
      "t_mapping(t_uint256,t_uint256)": {
        "encoding": "mapping",
        "key": "t_uint256",
        "label": "mapping(uint256 => uint256)",
        "numberOfBytes": "32",
        "value": "t_uint256"
      },
      "t_string_storage": {
        "encoding": "bytes",
        "label": "string",
        "numberOfBytes": "32"
      },
      "t_struct(Counter)2154_storage": {
        "encoding": "inplace",
        "label": "struct Counters.Counter",
        "members": [
          {
            "astId": 2153,
            "contract": "contracts/Land.sol:Land",
            "label": "_value",
            "offset": 0,
            "slot": "0",
            "type": "t_uint256"
          }
        ],
        "numberOfBytes": "32"
      },
      "t_struct(RoleData)19_storage": {
        "encoding": "inplace",
        "label": "struct AccessControl.RoleData",
        "members": [
          {
            "astId": 16,
            "contract": "contracts/Land.sol:Land",
            "label": "members",
            "offset": 0,
            "slot": "0",
            "type": "t_mapping(t_address,t_bool)"
          },
          {
            "astId": 18,
            "contract": "contracts/Land.sol:Land",
            "label": "adminRole",
            "offset": 0,
            "slot": "1",
            "type": "t_bytes32"
          }
        ],
        "numberOfBytes": "64"
      },
      "t_uint256": {
        "encoding": "inplace",
        "label": "uint256",
        "numberOfBytes": "32"
      }
    }
  }
}