{
  "address": "0xB986C968a8e64E29FB33C310A7b04CCb83Bb7427",
  "abi": [
    {
      "anonymous": false,
      "inputs": [
        {
          "indexed": true,
          "internalType": "address",
          "name": "previousOwner",
          "type": "address"
        },
        {
          "indexed": true,
          "internalType": "address",
          "name": "newOwner",
          "type": "address"
        }
      ],
      "name": "OwnershipTransferred",
      "type": "event"
    },
    {
      "inputs": [
        {
          "internalType": "bytes32",
          "name": "",
          "type": "bytes32"
        }
      ],
      "name": "claimed",
      "outputs": [
        {
          "internalType": "bool",
          "name": "claimedAll",
          "type": "bool"
        },
        {
          "internalType": "uint256",
          "name": "leftToClaim",
          "type": "uint256"
        }
      ],
      "stateMutability": "view",
      "type": "function"
    },
    {
      "inputs": [],
      "name": "land",
      "outputs": [
        {
          "internalType": "contract Land",
          "name": "",
          "type": "address"
        }
      ],
      "stateMutability": "view",
      "type": "function"
    },
    {
      "inputs": [
        {
          "internalType": "bytes32[]",
          "name": "proof",
          "type": "bytes32[]"
        },
        {
          "internalType": "uint256",
          "name": "amount",
          "type": "uint256"
        }
      ],
      "name": "leftToClaim",
      "outputs": [
        {
          "internalType": "uint256",
          "name": "",
          "type": "uint256"
        }
      ],
      "stateMutability": "view",
      "type": "function"
    },
    {
      "inputs": [],
      "name": "merkleRoot",
      "outputs": [
        {
          "internalType": "bytes32",
          "name": "",
          "type": "bytes32"
        }
      ],
      "stateMutability": "view",
      "type": "function"
    },
    {
      "inputs": [
        {
          "internalType": "bytes32[]",
          "name": "proof",
          "type": "bytes32[]"
        },
        {
          "internalType": "uint256",
          "name": "amount",
          "type": "uint256"
        }
      ],
      "name": "mintSmolBrainAndLand",
      "outputs": [],
      "stateMutability": "nonpayable",
      "type": "function"
    },
    {
      "inputs": [],
      "name": "owner",
      "outputs": [
        {
          "internalType": "address",
          "name": "",
          "type": "address"
        }
      ],
      "stateMutability": "view",
      "type": "function"
    },
    {
      "inputs": [],
      "name": "renounceOwnership",
      "outputs": [],
      "stateMutability": "nonpayable",
      "type": "function"
    },
    {
      "inputs": [
        {
          "internalType": "address",
          "name": "_land",
          "type": "address"
        }
      ],
      "name": "setLand",
      "outputs": [],
      "stateMutability": "nonpayable",
      "type": "function"
    },
    {
      "inputs": [
        {
          "internalType": "bytes32",
          "name": "_merkleRoot",
          "type": "bytes32"
        }
      ],
      "name": "setMerkleRoot",
      "outputs": [],
      "stateMutability": "nonpayable",
      "type": "function"
    },
    {
      "inputs": [
        {
          "internalType": "address",
          "name": "_smolBrain",
          "type": "address"
        }
      ],
      "name": "setSmolBrain",
      "outputs": [],
      "stateMutability": "nonpayable",
      "type": "function"
    },
    {
      "inputs": [],
      "name": "smolBrain",
      "outputs": [
        {
          "internalType": "contract SmolBrain",
          "name": "",
          "type": "address"
        }
      ],
      "stateMutability": "view",
      "type": "function"
    },
    {
      "inputs": [
        {
          "internalType": "address",
          "name": "newOwner",
          "type": "address"
        }
      ],
      "name": "transferOwnership",
      "outputs": [],
      "stateMutability": "nonpayable",
      "type": "function"
    }
  ],
  "transactionHash": "0x95206fcbb75c9e980856da00da37f38973e35fedfc4346678c8f68bf1ac87a2b",
  "args": [],
  "solcInputHash": "46ff15ae2ecfdaf8bc741a1f67ab9209",
  "bytecode": "0x608060405234801561001057600080fd5b5061001a3361001f565b61006f565b600080546001600160a01b038381166001600160a01b0319831681178455604051919092169283917f8be0079c531659141344cd1fd0a4f28419497f9722a3daafe3b4186f6b6457e09190a35050565b610ae18061007e6000396000f3fe608060405234801561001057600080fd5b50600436106100b45760003560e01c80638c980129116100715780638c9801291461012b5780638da5cb5b146101565780639f04213614610167578063c57cbed51461017a578063cc3c0f061461018d578063f2fde38b146101d157600080fd5b80632e209bdb146100b95780632eb4a7ab146100df57806342261828146100e8578063715018a6146100fd5780637cb647591461010557806381d9e0cf14610118575b600080fd5b6100cc6100c73660046108cf565b6101e4565b6040519081526020015b60405180910390f35b6100cc60025481565b6100fb6100f63660046108cf565b61026e565b005b6100fb610608565b6100fb61011336600461099a565b61063e565b6100fb61012636600461089f565b61066d565b60045461013e906001600160a01b031681565b6040516001600160a01b0390911681526020016100d6565b6000546001600160a01b031661013e565b6100fb61017536600461089f565b6106b9565b60035461013e906001600160a01b031681565b6101ba61019b36600461099a565b6001602081905260009182526040909120805491015460ff9091169082565b6040805192151583526020830191909152016100d6565b6100fb6101df36600461089f565b610705565b600080836040516020016101f891906109cc565b60408051601f1981840301815291815281516020928301206000818152600190935291205490915060ff1615610232576000915050610268565b600081815260016020819052604090912001546102525782915050610268565b6000908152600160208190526040909120015490505b92915050565b60008260405160200161028191906109cc565b60408051601f1981840301815291815281516020928301206000818152600190935291205490915060ff16156102fe5760405162461bcd60e51b815260206004820152601e60248201527f4d65726b6c6541697264726f703a20616c726561647920636c61696d6564000060448201526064015b60405180910390fd5b6000818152600160208190526040909120015461032b576000818152600160208190526040909120018290555b60008181526001602081815260408084209092015491516bffffffffffffffffffffffff193360601b16918101919091526034810185905290919060540160405160208183030381529060405280519060200120905061038e85600254836107a0565b6103da5760405162461bcd60e51b815260206004820152601c60248201527f4d65726b6c6541697264726f703a2070726f6f6620696e76616c69640000000060448201526064016102f5565b6000601483116103ea57826103ed565b60145b905060005b818110156105a557600354604051630e8b9f5160e11b81523360048201526001600160a01b0390911690631d173ea290602401600060405180830381600087803b15801561043f57600080fd5b505af1158015610453573d6000803e3d6000fd5b5050600354604051636c92120d60e01b81523360048201526001600160a01b039091169250636c92120d9150602401600060405180830381600087803b15801561049c57600080fd5b505af11580156104b0573d6000803e3d6000fd5b5050600480546040516370a0823160e01b815233928101929092526001600160a01b031692506370a08231915060240160206040518083038186803b1580156104f857600080fd5b505afa15801561050c573d6000803e3d6000fd5b505050506040513d601f19601f8201168201806040525081019061053091906109b3565b61059357600480546040516335313c2160e11b815233928101929092526001600160a01b031690636a62784290602401600060405180830381600087803b15801561057a57600080fd5b505af115801561058e573d6000803e3d6000fd5b505050505b8061059d81610a4e565b9150506103f2565b50600084815260016020819052604082200180548392906105c7908490610a37565b909155505060008481526001602081905260409091200154610600576000848152600160208190526040909120805460ff191690911790555b505050505050565b6000546001600160a01b031633146106325760405162461bcd60e51b81526004016102f590610a02565b61063c600061084f565b565b6000546001600160a01b031633146106685760405162461bcd60e51b81526004016102f590610a02565b600255565b6000546001600160a01b031633146106975760405162461bcd60e51b81526004016102f590610a02565b600480546001600160a01b0319166001600160a01b0392909216919091179055565b6000546001600160a01b031633146106e35760405162461bcd60e51b81526004016102f590610a02565b600380546001600160a01b0319166001600160a01b0392909216919091179055565b6000546001600160a01b0316331461072f5760405162461bcd60e51b81526004016102f590610a02565b6001600160a01b0381166107945760405162461bcd60e51b815260206004820152602660248201527f4f776e61626c653a206e6577206f776e657220697320746865207a65726f206160448201526564647265737360d01b60648201526084016102f5565b61079d8161084f565b50565b600081815b85518110156108445760008682815181106107c2576107c2610a7f565b60200260200101519050808311610804576040805160208101859052908101829052606001604051602081830303815290604052805190602001209250610831565b60408051602081018390529081018490526060016040516020818303038152906040528051906020012092505b508061083c81610a4e565b9150506107a5565b509092149392505050565b600080546001600160a01b038381166001600160a01b0319831681178455604051919092169283917f8be0079c531659141344cd1fd0a4f28419497f9722a3daafe3b4186f6b6457e09190a35050565b6000602082840312156108b157600080fd5b81356001600160a01b03811681146108c857600080fd5b9392505050565b600080604083850312156108e257600080fd5b823567ffffffffffffffff808211156108fa57600080fd5b818501915085601f83011261090e57600080fd5b813560208282111561092257610922610a95565b8160051b604051601f19603f8301168101818110868211171561094757610947610a95565b604052838152828101945085830182870184018b101561096657600080fd5b600096505b8487101561098957803586526001969096019594830194830161096b565b509997909101359750505050505050565b6000602082840312156109ac57600080fd5b5035919050565b6000602082840312156109c557600080fd5b5051919050565b815160009082906020808601845b838110156109f6578151855293820193908201906001016109da565b50929695505050505050565b6020808252818101527f4f776e61626c653a2063616c6c6572206973206e6f7420746865206f776e6572604082015260600190565b600082821015610a4957610a49610a69565b500390565b6000600019821415610a6257610a62610a69565b5060010190565b634e487b7160e01b600052601160045260246000fd5b634e487b7160e01b600052603260045260246000fd5b634e487b7160e01b600052604160045260246000fdfea2646970667358221220460299efa7e0bdda7756325ac57dd46baa3aaf9606fd3389b59d81a7a2de0ae264736f6c63430008070033",
  "devdoc": {
    "kind": "dev",
    "methods": {
      "owner()": {
        "details": "Returns the address of the current owner."
      },
      "renounceOwnership()": {
        "details": "Leaves the contract without owner. It will not be possible to call `onlyOwner` functions anymore. Can only be called by the current owner. NOTE: Renouncing ownership will leave the contract without an owner, thereby removing any functionality that is only available to the owner."
      },
      "transferOwnership(address)": {
        "details": "Transfers ownership of the contract to a new account (`newOwner`). Can only be called by the current owner."
      }
    },
    "version": 1
  },
  "userdoc": {
    "kind": "user",
    "methods": {},
    "version": 1
  },
  "storageLayout": {
    "storage": [
      {
        "astId": 387,
        "contract": "contracts/MerkleAirdrop.sol:MerkleAirdrop",
        "label": "_owner",
        "offset": 0,
        "slot": "0",
        "type": "t_address"
      },
      {
        "astId": 3067,
        "contract": "contracts/MerkleAirdrop.sol:MerkleAirdrop",
        "label": "claimed",
        "offset": 0,
        "slot": "1",
        "type": "t_mapping(t_bytes32,t_struct(Claim)3062_storage)"
      },
      {
        "astId": 3069,
        "contract": "contracts/MerkleAirdrop.sol:MerkleAirdrop",
        "label": "merkleRoot",
        "offset": 0,
        "slot": "2",
        "type": "t_bytes32"
      },
      {
        "astId": 3072,
        "contract": "contracts/MerkleAirdrop.sol:MerkleAirdrop",
        "label": "smolBrain",
        "offset": 0,
        "slot": "3",
        "type": "t_contract(SmolBrain)4190"
      },
      {
        "astId": 3075,
        "contract": "contracts/MerkleAirdrop.sol:MerkleAirdrop",
        "label": "land",
        "offset": 0,
        "slot": "4",
        "type": "t_contract(Land)3049"
      }
    ],
    "types": {
      "t_address": {
        "encoding": "inplace",
        "label": "address",
        "numberOfBytes": "20"
      },
      "t_bool": {
        "encoding": "inplace",
        "label": "bool",
        "numberOfBytes": "1"
      },
      "t_bytes32": {
        "encoding": "inplace",
        "label": "bytes32",
        "numberOfBytes": "32"
      },
      "t_contract(Land)3049": {
        "encoding": "inplace",
        "label": "contract Land",
        "numberOfBytes": "20"
      },
      "t_contract(SmolBrain)4190": {
        "encoding": "inplace",
        "label": "contract SmolBrain",
        "numberOfBytes": "20"
      },
      "t_mapping(t_bytes32,t_struct(Claim)3062_storage)": {
        "encoding": "mapping",
        "key": "t_bytes32",
        "label": "mapping(bytes32 => struct MerkleAirdrop.Claim)",
        "numberOfBytes": "32",
        "value": "t_struct(Claim)3062_storage"
      },
      "t_struct(Claim)3062_storage": {
        "encoding": "inplace",
        "label": "struct MerkleAirdrop.Claim",
        "members": [
          {
            "astId": 3059,
            "contract": "contracts/MerkleAirdrop.sol:MerkleAirdrop",
            "label": "claimedAll",
            "offset": 0,
            "slot": "0",
            "type": "t_bool"
          },
          {
            "astId": 3061,
            "contract": "contracts/MerkleAirdrop.sol:MerkleAirdrop",
            "label": "leftToClaim",
            "offset": 0,
            "slot": "1",
            "type": "t_uint256"
          }
        ],
        "numberOfBytes": "64"
      },
      "t_uint256": {
        "encoding": "inplace",
        "label": "uint256",
        "numberOfBytes": "32"
      }
    }
  }
}