{
  "address": "0x602e50Ed10A90D324b35930EC0F8E5D3b28cD509",
  "abi": [
    {
      "anonymous": false,
      "inputs": [
        {
          "indexed": false,
          "internalType": "uint256",
          "name": "tokenId",
          "type": "uint256"
        }
      ],
      "name": "DropSchool",
      "type": "event"
    },
    {
      "anonymous": false,
      "inputs": [
        {
          "indexed": false,
          "internalType": "uint256",
          "name": "tokenId",
          "type": "uint256"
        }
      ],
      "name": "JoinSchool",
      "type": "event"
    },
    {
      "anonymous": false,
      "inputs": [
        {
          "indexed": true,
          "internalType": "address",
          "name": "previousOwner",
          "type": "address"
        },
        {
          "indexed": true,
          "internalType": "address",
          "name": "newOwner",
          "type": "address"
        }
      ],
      "name": "OwnershipTransferred",
      "type": "event"
    },
    {
      "anonymous": false,
      "inputs": [
        {
          "indexed": false,
          "internalType": "uint256",
          "name": "iqPerWeek",
          "type": "uint256"
        }
      ],
      "name": "SetIqPerWeek",
      "type": "event"
    },
    {
      "anonymous": false,
      "inputs": [
        {
          "indexed": false,
          "internalType": "address",
          "name": "smolBrain",
          "type": "address"
        }
      ],
      "name": "SmolBrainSet",
      "type": "event"
    },
    {
      "inputs": [],
      "name": "WEEK",
      "outputs": [
        {
          "internalType": "uint256",
          "name": "",
          "type": "uint256"
        }
      ],
      "stateMutability": "view",
      "type": "function"
    },
    {
      "inputs": [
        {
          "internalType": "uint256",
          "name": "_tokenId",
          "type": "uint256"
        }
      ],
      "name": "drop",
      "outputs": [],
      "stateMutability": "nonpayable",
      "type": "function"
    },
    {
      "inputs": [
        {
          "internalType": "uint256",
          "name": "_tokenId",
          "type": "uint256"
        }
      ],
      "name": "iqEarned",
      "outputs": [
        {
          "internalType": "uint256",
          "name": "iq",
          "type": "uint256"
        }
      ],
      "stateMutability": "view",
      "type": "function"
    },
    {
      "inputs": [],
      "name": "iqPerWeek",
      "outputs": [
        {
          "internalType": "uint256",
          "name": "",
          "type": "uint256"
        }
      ],
      "stateMutability": "view",
      "type": "function"
    },
    {
      "inputs": [
        {
          "internalType": "uint256",
          "name": "_tokenId",
          "type": "uint256"
        }
      ],
      "name": "isAtSchool",
      "outputs": [
        {
          "internalType": "bool",
          "name": "",
          "type": "bool"
        }
      ],
      "stateMutability": "view",
      "type": "function"
    },
    {
      "inputs": [
        {
          "internalType": "uint256",
          "name": "_tokenId",
          "type": "uint256"
        }
      ],
      "name": "join",
      "outputs": [],
      "stateMutability": "nonpayable",
      "type": "function"
    },
    {
      "inputs": [],
      "name": "lastRewardTimestamp",
      "outputs": [
        {
          "internalType": "uint256",
          "name": "",
          "type": "uint256"
        }
      ],
      "stateMutability": "view",
      "type": "function"
    },
    {
      "inputs": [],
      "name": "owner",
      "outputs": [
        {
          "internalType": "address",
          "name": "",
          "type": "address"
        }
      ],
      "stateMutability": "view",
      "type": "function"
    },
    {
      "inputs": [],
      "name": "renounceOwnership",
      "outputs": [],
      "stateMutability": "nonpayable",
      "type": "function"
    },
    {
      "inputs": [
        {
          "internalType": "uint256",
          "name": "_iqPerWeek",
          "type": "uint256"
        }
      ],
      "name": "setIqPerWeek",
      "outputs": [],
      "stateMutability": "nonpayable",
      "type": "function"
    },
    {
      "inputs": [
        {
          "internalType": "address",
          "name": "_smolBrain",
          "type": "address"
        }
      ],
      "name": "setSmolBrain",
      "outputs": [],
      "stateMutability": "nonpayable",
      "type": "function"
    },
    {
      "inputs": [],
      "name": "smolBrain",
      "outputs": [
        {
          "internalType": "contract SmolBrain",
          "name": "",
          "type": "address"
        }
      ],
      "stateMutability": "view",
      "type": "function"
    },
    {
      "inputs": [],
      "name": "smolBrainSupply",
      "outputs": [
        {
          "internalType": "uint256",
          "name": "",
          "type": "uint256"
        }
      ],
      "stateMutability": "view",
      "type": "function"
    },
    {
      "inputs": [
        {
          "internalType": "uint256",
          "name": "",
          "type": "uint256"
        }
      ],
      "name": "timestampJoined",
      "outputs": [
        {
          "internalType": "uint256",
          "name": "",
          "type": "uint256"
        }
      ],
      "stateMutability": "view",
      "type": "function"
    },
    {
      "inputs": [],
      "name": "totalIQ",
      "outputs": [
        {
          "internalType": "uint256",
          "name": "",
          "type": "uint256"
        }
      ],
      "stateMutability": "view",
      "type": "function"
    },
    {
      "inputs": [],
      "name": "totalIqStored",
      "outputs": [
        {
          "internalType": "uint256",
          "name": "",
          "type": "uint256"
        }
      ],
      "stateMutability": "view",
      "type": "function"
    },
    {
      "inputs": [
        {
          "internalType": "address",
          "name": "newOwner",
          "type": "address"
        }
      ],
      "name": "transferOwnership",
      "outputs": [],
      "stateMutability": "nonpayable",
      "type": "function"
    }
  ],
  "transactionHash": "0xae81d2023489b7927bb6d9d3b76d03f20b8e4299a0350423d692dff26ccc71ee",
  "args": [],
  "solcInputHash": "46ff15ae2ecfdaf8bc741a1f67ab9209",
  "bytecode": "0x608060405234801561001057600080fd5b5061001a3361001f565b61006f565b600080546001600160a01b038381166001600160a01b0319831681178455604051919092169283917f8be0079c531659141344cd1fd0a4f28419497f9722a3daafe3b4186f6b6457e09190a35050565b610aa58061007e6000396000f3fe608060405234801561001057600080fd5b506004361061010b5760003560e01c80639f042136116100a2578063c57cbed511610071578063c57cbed5146101f4578063f2fde38b14610207578063f4359ce51461021a578063f5f3250214610224578063f8077fae1461025657600080fd5b80639f042136146101b0578063a0cbebd6146101c3578063a4db136a146101cc578063c12cfbef146101ec57600080fd5b80637004ad10116100de5780637004ad1014610167578063715018a61461017a5780637bd55506146101825780638da5cb5b1461018b57600080fd5b8063049878f3146101105780630a12d64a14610125578063211d9a5314610141578063457cb58514610154575b600080fd5b61012361011e36600461090f565b61025f565b005b61012e60015481565b6040519081526020015b60405180910390f35b61012361014f36600461090f565b61041a565b61012e61016236600461090f565b61062e565b61012361017536600461090f565b610687565b6101236106ed565b61012e60045481565b6000546001600160a01b03165b6040516001600160a01b039091168152602001610138565b6101236101be3660046108d5565b610723565b61012e60025481565b61012e6101da36600461090f565b60066020526000908152604090205481565b61012e61079b565b600554610198906001600160a01b031681565b6101236102153660046108d5565b6107ea565b61012e62093a8081565b61024661023236600461090f565b600090815260066020526040902054151590565b6040519015158152602001610138565b61012e60035481565b6005546040516331a9108f60e11b815260048101839052829133916001600160a01b0390911690636352211e9060240160206040518083038186803b1580156102a757600080fd5b505afa1580156102bb573d6000803e3d6000fd5b505050506040513d601f19601f820116820180604052508101906102df91906108f2565b6001600160a01b03161461030e5760405162461bcd60e51b815260040161030590610928565b60405180910390fd5b8160008061032a83600090815260066020526040902054151590565b1515146103795760405162461bcd60e51b815260206004820152601f60248201527f5363686f6f6c3a2077726f6e67207363686f6f6c20617474656e64616e6365006044820152606401610305565b600454600190156103905761038c61079b565b6002555b42600355806103b257600480549060006103a983610a12565b919050556103c7565b600480549060006103c283610a29565b919050555b5060008581526006602052604090819020429055517f9c9e2994b6533d80ea4c3ae437435fd0e1a2d2c6fe78742dfb7a9dfe90be20c79061040b9087815260200190565b60405180910390a15050505050565b6005546040516331a9108f60e11b815260048101839052829133916001600160a01b0390911690636352211e9060240160206040518083038186803b15801561046257600080fd5b505afa158015610476573d6000803e3d6000fd5b505050506040513d601f19601f8201168201806040525081019061049a91906108f2565b6001600160a01b0316146104c05760405162461bcd60e51b815260040161030590610928565b816001806104dc83600090815260066020526040902054151590565b15151461052b5760405162461bcd60e51b815260206004820152601f60248201527f5363686f6f6c3a2077726f6e67207363686f6f6c20617474656e64616e6365006044820152606401610305565b600454600090156105425761053e61079b565b6002555b4260035580610564576004805490600061055b83610a12565b91905055610579565b6004805490600061057483610a29565b919050555b506005546001600160a01b03166341268ea1866105958161062e565b6040516001600160e01b031960e085901b16815260048101929092526024820152604401600060405180830381600087803b1580156105d357600080fd5b505af11580156105e7573d6000803e3d6000fd5b50505060008681526006602052604080822091909155517ff1d267370a5b3b04581baadf2fcfa3ac6964f20b5565a1ab24ab13d4c9c8663f915061040b9087815260200190565b60008181526006602052604081205461064957506000919050565b60008281526006602052604081205461066290426109fb565b905062093a808160015461067691906109dc565b61068091906109ba565b9392505050565b6000546001600160a01b031633146106b15760405162461bcd60e51b81526004016103059061096d565b60018190556040518181527f62c29a1c41d126e6c410faea9067b6c52d5b0b6ff05c49854c64a901ad2a523f906020015b60405180910390a150565b6000546001600160a01b031633146107175760405162461bcd60e51b81526004016103059061096d565b6107216000610885565b565b6000546001600160a01b0316331461074d5760405162461bcd60e51b81526004016103059061096d565b600580546001600160a01b0319166001600160a01b0383169081179091556040519081527f12f789c3a21da2a95325bae92834ecef6381e3e8af16ab037239c8f5f9ae6472906020016106e2565b600080600354426107ac91906109fb565b905062093a80816001546004546107c391906109dc565b6107cd91906109dc565b6107d791906109ba565b6002546107e491906109a2565b91505090565b6000546001600160a01b031633146108145760405162461bcd60e51b81526004016103059061096d565b6001600160a01b0381166108795760405162461bcd60e51b815260206004820152602660248201527f4f776e61626c653a206e6577206f776e657220697320746865207a65726f206160448201526564647265737360d01b6064820152608401610305565b61088281610885565b50565b600080546001600160a01b038381166001600160a01b0319831681178455604051919092169283917f8be0079c531659141344cd1fd0a4f28419497f9722a3daafe3b4186f6b6457e09190a35050565b6000602082840312156108e757600080fd5b813561068081610a5a565b60006020828403121561090457600080fd5b815161068081610a5a565b60006020828403121561092157600080fd5b5035919050565b60208082526025908201527f5363686f6f6c3a206f6e6c79206f776e65722063616e2073656e6420746f207360408201526418da1bdbdb60da1b606082015260800190565b6020808252818101527f4f776e61626c653a2063616c6c6572206973206e6f7420746865206f776e6572604082015260600190565b600082198211156109b5576109b5610a44565b500190565b6000826109d757634e487b7160e01b600052601260045260246000fd5b500490565b60008160001904831182151516156109f6576109f6610a44565b500290565b600082821015610a0d57610a0d610a44565b500390565b600081610a2157610a21610a44565b506000190190565b6000600019821415610a3d57610a3d610a44565b5060010190565b634e487b7160e01b600052601160045260246000fd5b6001600160a01b038116811461088257600080fdfea26469706673582212208a3f7e2640a9235eddef720ef07ea04c8d99e04ffafe9cc5596775f749857b2164736f6c63430008070033",
  "devdoc": {
    "kind": "dev",
    "methods": {
      "owner()": {
        "details": "Returns the address of the current owner."
      },
      "renounceOwnership()": {
        "details": "Leaves the contract without owner. It will not be possible to call `onlyOwner` functions anymore. Can only be called by the current owner. NOTE: Renouncing ownership will leave the contract without an owner, thereby removing any functionality that is only available to the owner."
      },
      "setIqPerWeek(uint256)": {
        "params": {
          "_iqPerWeek": "NUmber of IQ points to earn a week, 18 decimals"
        }
      },
      "transferOwnership(address)": {
        "details": "Transfers ownership of the contract to a new account (`newOwner`). Can only be called by the current owner."
      }
    },
    "stateVariables": {
      "iqPerWeek": {
        "details": "18 decimals"
      },
      "lastRewardTimestamp": {
        "details": "unix timestamp"
      },
      "totalIqStored": {
        "details": "18 decimals"
      }
    },
    "version": 1
  },
  "userdoc": {
    "kind": "user",
    "methods": {},
    "version": 1
  },
  "storageLayout": {
    "storage": [
      {
        "astId": 387,
        "contract": "contracts/School.sol:School",
        "label": "_owner",
        "offset": 0,
        "slot": "0",
        "type": "t_address"
      },
      {
        "astId": 3422,
        "contract": "contracts/School.sol:School",
        "label": "iqPerWeek",
        "offset": 0,
        "slot": "1",
        "type": "t_uint256"
      },
      {
        "astId": 3425,
        "contract": "contracts/School.sol:School",
        "label": "totalIqStored",
        "offset": 0,
        "slot": "2",
        "type": "t_uint256"
      },
      {
        "astId": 3428,
        "contract": "contracts/School.sol:School",
        "label": "lastRewardTimestamp",
        "offset": 0,
        "slot": "3",
        "type": "t_uint256"
      },
      {
        "astId": 3430,
        "contract": "contracts/School.sol:School",
        "label": "smolBrainSupply",
        "offset": 0,
        "slot": "4",
        "type": "t_uint256"
      },
      {
        "astId": 3433,
        "contract": "contracts/School.sol:School",
        "label": "smolBrain",
        "offset": 0,
        "slot": "5",
        "type": "t_contract(SmolBrain)4190"
      },
      {
        "astId": 3437,
        "contract": "contracts/School.sol:School",
        "label": "timestampJoined",
        "offset": 0,
        "slot": "6",
        "type": "t_mapping(t_uint256,t_uint256)"
      }
    ],
    "types": {
      "t_address": {
        "encoding": "inplace",
        "label": "address",
        "numberOfBytes": "20"
      },
      "t_contract(SmolBrain)4190": {
        "encoding": "inplace",
        "label": "contract SmolBrain",
        "numberOfBytes": "20"
      },
      "t_mapping(t_uint256,t_uint256)": {
        "encoding": "mapping",
        "key": "t_uint256",
        "label": "mapping(uint256 => uint256)",
        "numberOfBytes": "32",
        "value": "t_uint256"
      },
      "t_uint256": {
        "encoding": "inplace",
        "label": "uint256",
        "numberOfBytes": "32"
      }
    }
  }
}