{
  "address": "0xabc3B7524797e5ed331DadDf072c2c8DB6Be4796",
  "abi": [
    {
      "inputs": [
        {
          "internalType": "address",
          "name": "_smolbrain",
          "type": "address"
        },
        {
          "internalType": "address",
          "name": "_smolfarm",
          "type": "address"
        },
        {
          "internalType": "address",
          "name": "_smolracing",
          "type": "address"
        }
      ],
      "stateMutability": "nonpayable",
      "type": "constructor"
    },
    {
      "anonymous": false,
      "inputs": [
        {
          "indexed": true,
          "internalType": "address",
          "name": "owner",
          "type": "address"
        },
        {
          "indexed": true,
          "internalType": "address",
          "name": "spender",
          "type": "address"
        },
        {
          "indexed": false,
          "internalType": "uint256",
          "name": "value",
          "type": "uint256"
        }
      ],
      "name": "Approval",
      "type": "event"
    },
    {
      "anonymous": false,
      "inputs": [
        {
          "indexed": true,
          "internalType": "address",
          "name": "from",
          "type": "address"
        },
        {
          "indexed": true,
          "internalType": "address",
          "name": "to",
          "type": "address"
        },
        {
          "indexed": false,
          "internalType": "uint256",
          "name": "value",
          "type": "uint256"
        }
      ],
      "name": "Transfer",
      "type": "event"
    },
    {
      "inputs": [
        {
          "internalType": "address",
          "name": "owner",
          "type": "address"
        },
        {
          "internalType": "address",
          "name": "spender",
          "type": "address"
        }
      ],
      "name": "allowance",
      "outputs": [
        {
          "internalType": "uint256",
          "name": "",
          "type": "uint256"
        }
      ],
      "stateMutability": "view",
      "type": "function"
    },
    {
      "inputs": [
        {
          "internalType": "address",
          "name": "spender",
          "type": "address"
        },
        {
          "internalType": "uint256",
          "name": "amount",
          "type": "uint256"
        }
      ],
      "name": "approve",
      "outputs": [
        {
          "internalType": "bool",
          "name": "",
          "type": "bool"
        }
      ],
      "stateMutability": "nonpayable",
      "type": "function"
    },
    {
      "inputs": [
        {
          "internalType": "address",
          "name": "_account",
          "type": "address"
        }
      ],
      "name": "balanceOf",
      "outputs": [
        {
          "internalType": "uint256",
          "name": "balanceAtSchool",
          "type": "uint256"
        }
      ],
      "stateMutability": "view",
      "type": "function"
    },
    {
      "inputs": [],
      "name": "decimals",
      "outputs": [
        {
          "internalType": "uint8",
          "name": "",
          "type": "uint8"
        }
      ],
      "stateMutability": "view",
      "type": "function"
    },
    {
      "inputs": [
        {
          "internalType": "address",
          "name": "spender",
          "type": "address"
        },
        {
          "internalType": "uint256",
          "name": "subtractedValue",
          "type": "uint256"
        }
      ],
      "name": "decreaseAllowance",
      "outputs": [
        {
          "internalType": "bool",
          "name": "",
          "type": "bool"
        }
      ],
      "stateMutability": "nonpayable",
      "type": "function"
    },
    {
      "inputs": [
        {
          "internalType": "address",
          "name": "_account",
          "type": "address"
        }
      ],
      "name": "getFarmBalance",
      "outputs": [
        {
          "internalType": "uint256",
          "name": "balanceAtFarm",
          "type": "uint256"
        }
      ],
      "stateMutability": "view",
      "type": "function"
    },
    {
      "inputs": [
        {
          "internalType": "address",
          "name": "_account",
          "type": "address"
        }
      ],
      "name": "getRacingBalance",
      "outputs": [
        {
          "internalType": "uint256",
          "name": "balanceAtRacing",
          "type": "uint256"
        }
      ],
      "stateMutability": "view",
      "type": "function"
    },
    {
      "inputs": [
        {
          "internalType": "address",
          "name": "_account",
          "type": "address"
        }
      ],
      "name": "getSchoolBalance",
      "outputs": [
        {
          "internalType": "uint256",
          "name": "balanceAtSchool",
          "type": "uint256"
        }
      ],
      "stateMutability": "view",
      "type": "function"
    },
    {
      "inputs": [
        {
          "internalType": "address",
          "name": "spender",
          "type": "address"
        },
        {
          "internalType": "uint256",
          "name": "addedValue",
          "type": "uint256"
        }
      ],
      "name": "increaseAllowance",
      "outputs": [
        {
          "internalType": "bool",
          "name": "",
          "type": "bool"
        }
      ],
      "stateMutability": "nonpayable",
      "type": "function"
    },
    {
      "inputs": [],
      "name": "name",
      "outputs": [
        {
          "internalType": "string",
          "name": "",
          "type": "string"
        }
      ],
      "stateMutability": "view",
      "type": "function"
    },
    {
      "inputs": [],
      "name": "smolbrain",
      "outputs": [
        {
          "internalType": "contract SmolBrain",
          "name": "",
          "type": "address"
        }
      ],
      "stateMutability": "view",
      "type": "function"
    },
    {
      "inputs": [],
      "name": "smolfarm",
      "outputs": [
        {
          "internalType": "contract ISmolFarm",
          "name": "",
          "type": "address"
        }
      ],
      "stateMutability": "view",
      "type": "function"
    },
    {
      "inputs": [],
      "name": "smolracing",
      "outputs": [
        {
          "internalType": "contract ISmolRacing",
          "name": "",
          "type": "address"
        }
      ],
      "stateMutability": "view",
      "type": "function"
    },
    {
      "inputs": [],
      "name": "symbol",
      "outputs": [
        {
          "internalType": "string",
          "name": "",
          "type": "string"
        }
      ],
      "stateMutability": "view",
      "type": "function"
    },
    {
      "inputs": [],
      "name": "totalSupply",
      "outputs": [
        {
          "internalType": "uint256",
          "name": "",
          "type": "uint256"
        }
      ],
      "stateMutability": "view",
      "type": "function"
    },
    {
      "inputs": [
        {
          "internalType": "address",
          "name": "recipient",
          "type": "address"
        },
        {
          "internalType": "uint256",
          "name": "amount",
          "type": "uint256"
        }
      ],
      "name": "transfer",
      "outputs": [
        {
          "internalType": "bool",
          "name": "",
          "type": "bool"
        }
      ],
      "stateMutability": "nonpayable",
      "type": "function"
    },
    {
      "inputs": [
        {
          "internalType": "address",
          "name": "sender",
          "type": "address"
        },
        {
          "internalType": "address",
          "name": "recipient",
          "type": "address"
        },
        {
          "internalType": "uint256",
          "name": "amount",
          "type": "uint256"
        }
      ],
      "name": "transferFrom",
      "outputs": [
        {
          "internalType": "bool",
          "name": "",
          "type": "bool"
        }
      ],
      "stateMutability": "nonpayable",
      "type": "function"
    }
  ],
  "transactionHash": "0xb9e6f1aa70fb9488af2d79458ec63e06f1eca59f7b14a06b670d247694c8ea49",
  "args": [
    "0x6325439389E0797Ab35752B4F43a14C004f22A9c",
    "0xC2E007C61319fcf028178FAB14CD6ED6660C6e86",
    "0xEc895f620D1c103d5Bbc85CcE3b623C958Ce35cC"
  ],
  "solcInputHash": "c328cb418d7ac99efde1a8a4e023b7a0",
  "bytecode": "0x60806040523480156200001157600080fd5b506040516200115a3803806200115a8339810160408190526200003491620001a7565b604080518082018252600f81526e536d6f6c20476f7665726e616e636560881b60208083019182528351808501909452600584526419d4d353d360da1b9084015281519192916200008891600391620000e4565b5080516200009e906004906020840190620000e4565b5050600580546001600160a01b039586166001600160a01b031991821617909155600680549486169482169490941790935550600780549190931691161790556200022e565b828054620000f290620001f1565b90600052602060002090601f01602090048101928262000116576000855562000161565b82601f106200013157805160ff191683800117855562000161565b8280016001018555821562000161579182015b828111156200016157825182559160200191906001019062000144565b506200016f92915062000173565b5090565b5b808211156200016f576000815560010162000174565b80516001600160a01b0381168114620001a257600080fd5b919050565b600080600060608486031215620001bd57600080fd5b620001c8846200018a565b9250620001d8602085016200018a565b9150620001e8604085016200018a565b90509250925092565b600181811c908216806200020657607f821691505b602082108114156200022857634e487b7160e01b600052602260045260246000fd5b50919050565b610f1c806200023e6000396000f3fe608060405234801561001057600080fd5b506004361061010b5760003560e01c806370a08231116100a2578063a457c2d711610071578063a457c2d71461021b578063a9059cbb1461022e578063dd62ed3e14610241578063e9a635bc1461027a578063f61c36d11461028d57600080fd5b806370a08231146101c2578063711adf3c146101d557806392a1ea711461020057806395d89b411461021357600080fd5b806323b872dd116100de57806323b872dd1461017a578063313ce5671461018d578063395093511461019c5780635228aea3146101af57600080fd5b806306fdde0314610110578063095ea7b31461012e57806318160ddd146101515780631ba8608c14610167575b600080fd5b6101186102a0565b6040516101259190610ddf565b60405180910390f35b61014161013c366004610c96565b610332565b6040519015158152602001610125565b610159610348565b604051908152602001610125565b610159610175366004610bf8565b6103ca565b610141610188366004610c55565b610610565b60405160128152602001610125565b6101416101aa366004610c96565b6106bf565b6101596101bd366004610bf8565b6106fb565b6101596101d0366004610bf8565b610793565b6006546101e8906001600160a01b031681565b6040516001600160a01b039091168152602001610125565b6005546101e8906001600160a01b031681565b6101186107ca565b610141610229366004610c96565b6107d9565b61014161023c366004610c96565b610872565b61015961024f366004610c1c565b6001600160a01b03918216600090815260016020908152604080832093909416825291909152205490565b6007546101e8906001600160a01b031681565b61015961029b366004610bf8565b61087f565b6060600380546102af90610e4c565b80601f01602080910402602001604051908101604052809291908181526020018280546102db90610e4c565b80156103285780601f106102fd57610100808354040283529160200191610328565b820191906000526020600020905b81548152906001019060200180831161030b57829003601f168201915b5050505050905090565b600061033f3384846108bf565b50600192915050565b600554604080516318160ddd60e01b815290516000926001600160a01b0316916318160ddd916004808301926020929190829003018186803b15801561038d57600080fd5b505afa1580156103a1573d6000803e3d6000fd5b505050506040513d601f19601f820116820180604052508101906103c59190610dc6565b905090565b6005546040516370a0823160e01b81526001600160a01b03838116600483015260009283929116906370a082319060240160206040518083038186803b15801561041357600080fd5b505afa158015610427573d6000803e3d6000fd5b505050506040513d601f19601f8201168201806040525081019061044b9190610dc6565b90506000600560009054906101000a90046001600160a01b03166001600160a01b031663812c8d5f6040518163ffffffff1660e01b815260040160206040518083038186803b15801561049d57600080fd5b505afa1580156104b1573d6000803e3d6000fd5b505050506040513d601f19601f820116820180604052508101906104d59190610da9565b905060005b8281101561060857600554604051632f745c5960e01b81526001600160a01b038781166004830152602482018490526000921690632f745c599060440160206040518083038186803b15801561052f57600080fd5b505afa158015610543573d6000803e3d6000fd5b505050506040513d601f19601f820116820180604052508101906105679190610dc6565b604051637af9928160e11b8152600481018290529091506001600160a01b0384169063f5f325029060240160206040518083038186803b1580156105aa57600080fd5b505afa1580156105be573d6000803e3d6000fd5b505050506040513d601f19601f820116820180604052508101906105e29190610d87565b156105f557846105f181610e87565b9550505b508061060081610e87565b9150506104da565b505050919050565b600061061d8484846109e3565b6001600160a01b0384166000908152600160209081526040808320338452909152902054828110156106a75760405162461bcd60e51b815260206004820152602860248201527f45524332303a207472616e7366657220616d6f756e74206578636565647320616044820152676c6c6f77616e636560c01b60648201526084015b60405180910390fd5b6106b485338584036108bf565b506001949350505050565b3360008181526001602090815260408083206001600160a01b0387168452909152812054909161033f9185906106f6908690610e34565b6108bf565b60065460055460405163cfe8f48760e01b81526001600160a01b03918216600482015283821660248201526000928392169063cfe8f487906044015b60006040518083038186803b15801561074f57600080fd5b505afa158015610763573d6000803e3d6000fd5b505050506040513d6000823e601f3d908101601f1916820160405261078b9190810190610cc2565b519392505050565b600061079e8261087f565b6107a7836106fb565b6107b0846103ca565b6107ba9190610e34565b6107c49190610e34565b92915050565b6060600480546102af90610e4c565b3360009081526001602090815260408083206001600160a01b03861684529091528120548281101561085b5760405162461bcd60e51b815260206004820152602560248201527f45524332303a2064656372656173656420616c6c6f77616e63652062656c6f77604482015264207a65726f60d81b606482015260840161069e565b61086833858584036108bf565b5060019392505050565b600061033f3384846109e3565b600754600554604051630cef4c8160e21b81526001600160a01b0391821660048201528382166024820152600092839216906333bd320490604401610737565b6001600160a01b0383166109215760405162461bcd60e51b8152602060048201526024808201527f45524332303a20617070726f76652066726f6d20746865207a65726f206164646044820152637265737360e01b606482015260840161069e565b6001600160a01b0382166109825760405162461bcd60e51b815260206004820152602260248201527f45524332303a20617070726f766520746f20746865207a65726f206164647265604482015261737360f01b606482015260840161069e565b6001600160a01b0383811660008181526001602090815260408083209487168084529482529182902085905590518481527f8c5be1e5ebec7d5bd14f71427d1e84f3dd0314c0f7b2291e5b200ac8c7c3b925910160405180910390a3505050565b6001600160a01b038316610a475760405162461bcd60e51b815260206004820152602560248201527f45524332303a207472616e736665722066726f6d20746865207a65726f206164604482015264647265737360d81b606482015260840161069e565b6001600160a01b038216610aa95760405162461bcd60e51b815260206004820152602360248201527f45524332303a207472616e7366657220746f20746865207a65726f206164647260448201526265737360e81b606482015260840161069e565b610ab4838383610bbd565b6001600160a01b03831660009081526020819052604090205481811015610b2c5760405162461bcd60e51b815260206004820152602660248201527f45524332303a207472616e7366657220616d6f756e7420657863656564732062604482015265616c616e636560d01b606482015260840161069e565b6001600160a01b03808516600090815260208190526040808220858503905591851681529081208054849290610b63908490610e34565b92505081905550826001600160a01b0316846001600160a01b03167fddf252ad1be2c89b69c2b068fc378daa952ba7f163c4a11628f55a4df523b3ef84604051610baf91815260200190565b60405180910390a350505050565b60405162461bcd60e51b815260206004820152601060248201526f4e6f6e2d7472616e7366657261626c6560801b604482015260640161069e565b600060208284031215610c0a57600080fd5b8135610c1581610ece565b9392505050565b60008060408385031215610c2f57600080fd5b8235610c3a81610ece565b91506020830135610c4a81610ece565b809150509250929050565b600080600060608486031215610c6a57600080fd5b8335610c7581610ece565b92506020840135610c8581610ece565b929592945050506040919091013590565b60008060408385031215610ca957600080fd5b8235610cb481610ece565b946020939093013593505050565b60006020808385031215610cd557600080fd5b825167ffffffffffffffff80821115610ced57600080fd5b818501915085601f830112610d0157600080fd5b815181811115610d1357610d13610eb8565b8060051b604051601f19603f83011681018181108582111715610d3857610d38610eb8565b604052828152858101935084860182860187018a1015610d5757600080fd5b600095505b83861015610d7a578051855260019590950194938601938601610d5c565b5098975050505050505050565b600060208284031215610d9957600080fd5b81518015158114610c1557600080fd5b600060208284031215610dbb57600080fd5b8151610c1581610ece565b600060208284031215610dd857600080fd5b5051919050565b600060208083528351808285015260005b81811015610e0c57858101830151858201604001528201610df0565b81811115610e1e576000604083870101525b50601f01601f1916929092016040019392505050565b60008219821115610e4757610e47610ea2565b500190565b600181811c90821680610e6057607f821691505b60208210811415610e8157634e487b7160e01b600052602260045260246000fd5b50919050565b6000600019821415610e9b57610e9b610ea2565b5060010190565b634e487b7160e01b600052601160045260246000fd5b634e487b7160e01b600052604160045260246000fd5b6001600160a01b0381168114610ee357600080fd5b5056fea2646970667358221220a7ae27a05850a46f75e15790fed9624850665bbc26d5447e7685b1ff095bb10564736f6c63430008070033",
  "devdoc": {
    "kind": "dev",
    "methods": {
      "allowance(address,address)": {
        "details": "See {IERC20-allowance}."
      },
      "approve(address,uint256)": {
        "details": "See {IERC20-approve}. Requirements: - `spender` cannot be the zero address."
      },
      "decimals()": {
        "details": "Returns the number of decimals used to get its user representation. For example, if `decimals` equals `2`, a balance of `505` tokens should be displayed to a user as `5.05` (`505 / 10 ** 2`). Tokens usually opt for a value of 18, imitating the relationship between Ether and Wei. This is the value {ERC20} uses, unless this function is overridden; NOTE: This information is only used for _display_ purposes: it in no way affects any of the arithmetic of the contract, including {IERC20-balanceOf} and {IERC20-transfer}."
      },
      "decreaseAllowance(address,uint256)": {
        "details": "Atomically decreases the allowance granted to `spender` by the caller. This is an alternative to {approve} that can be used as a mitigation for problems described in {IERC20-approve}. Emits an {Approval} event indicating the updated allowance. Requirements: - `spender` cannot be the zero address. - `spender` must have allowance for the caller of at least `subtractedValue`."
      },
      "increaseAllowance(address,uint256)": {
        "details": "Atomically increases the allowance granted to `spender` by the caller. This is an alternative to {approve} that can be used as a mitigation for problems described in {IERC20-approve}. Emits an {Approval} event indicating the updated allowance. Requirements: - `spender` cannot be the zero address."
      },
      "name()": {
        "details": "Returns the name of the token."
      },
      "symbol()": {
        "details": "Returns the symbol of the token, usually a shorter version of the name."
      },
      "totalSupply()": {
        "details": "See {IERC20-totalSupply}."
      },
      "transfer(address,uint256)": {
        "details": "See {IERC20-transfer}. Requirements: - `recipient` cannot be the zero address. - the caller must have a balance of at least `amount`."
      },
      "transferFrom(address,address,uint256)": {
        "details": "See {IERC20-transferFrom}. Emits an {Approval} event indicating the updated allowance. This is not required by the EIP. See the note at the beginning of {ERC20}. Requirements: - `sender` and `recipient` cannot be the zero address. - `sender` must have a balance of at least `amount`. - the caller must have allowance for ``sender``'s tokens of at least `amount`."
      }
    },
    "version": 1
  },
  "userdoc": {
    "kind": "user",
    "methods": {},
    "version": 1
  },
  "storageLayout": {
    "storage": [
      {
        "astId": 499,
        "contract": "contracts/SmolGov.sol:SmolGov",
        "label": "_balances",
        "offset": 0,
        "slot": "0",
        "type": "t_mapping(t_address,t_uint256)"
      },
      {
        "astId": 505,
        "contract": "contracts/SmolGov.sol:SmolGov",
        "label": "_allowances",
        "offset": 0,
        "slot": "1",
        "type": "t_mapping(t_address,t_mapping(t_address,t_uint256))"
      },
      {
        "astId": 507,
        "contract": "contracts/SmolGov.sol:SmolGov",
        "label": "_totalSupply",
        "offset": 0,
        "slot": "2",
        "type": "t_uint256"
      },
      {
        "astId": 509,
        "contract": "contracts/SmolGov.sol:SmolGov",
        "label": "_name",
        "offset": 0,
        "slot": "3",
        "type": "t_string_storage"
      },
      {
        "astId": 511,
        "contract": "contracts/SmolGov.sol:SmolGov",
        "label": "_symbol",
        "offset": 0,
        "slot": "4",
        "type": "t_string_storage"
      },
      {
        "astId": 4954,
        "contract": "contracts/SmolGov.sol:SmolGov",
        "label": "smolbrain",
        "offset": 0,
        "slot": "5",
        "type": "t_contract(SmolBrain)4914"
      },
      {
        "astId": 4957,
        "contract": "contracts/SmolGov.sol:SmolGov",
        "label": "smolfarm",
        "offset": 0,
        "slot": "6",
        "type": "t_contract(ISmolFarm)4930"
      },
      {
        "astId": 4960,
        "contract": "contracts/SmolGov.sol:SmolGov",
        "label": "smolracing",
        "offset": 0,
        "slot": "7",
        "type": "t_contract(ISmolRacing)4949"
      }
    ],
    "types": {
      "t_address": {
        "encoding": "inplace",
        "label": "address",
        "numberOfBytes": "20"
      },
      "t_contract(ISmolFarm)4930": {
        "encoding": "inplace",
        "label": "contract ISmolFarm",
        "numberOfBytes": "20"
      },
      "t_contract(ISmolRacing)4949": {
        "encoding": "inplace",
        "label": "contract ISmolRacing",
        "numberOfBytes": "20"
      },
      "t_contract(SmolBrain)4914": {
        "encoding": "inplace",
        "label": "contract SmolBrain",
        "numberOfBytes": "20"
      },
      "t_mapping(t_address,t_mapping(t_address,t_uint256))": {
        "encoding": "mapping",
        "key": "t_address",
        "label": "mapping(address => mapping(address => uint256))",
        "numberOfBytes": "32",
        "value": "t_mapping(t_address,t_uint256)"
      },
      "t_mapping(t_address,t_uint256)": {
        "encoding": "mapping",
        "key": "t_address",
        "label": "mapping(address => uint256)",
        "numberOfBytes": "32",
        "value": "t_uint256"
      },
      "t_string_storage": {
        "encoding": "bytes",
        "label": "string",
        "numberOfBytes": "32"
      },
      "t_uint256": {
        "encoding": "inplace",
        "label": "uint256",
        "numberOfBytes": "32"
      }
    }
  }
}