{
  "address": "0x6325439389E0797Ab35752B4F43a14C004f22A9c",
  "abi": [
    {
      "inputs": [
        {
          "internalType": "address",
          "name": "_luckyWinner",
          "type": "address"
        }
      ],
      "stateMutability": "nonpayable",
      "type": "constructor"
    },
    {
      "anonymous": false,
      "inputs": [
        {
          "indexed": true,
          "internalType": "address",
          "name": "owner",
          "type": "address"
        },
        {
          "indexed": true,
          "internalType": "address",
          "name": "approved",
          "type": "address"
        },
        {
          "indexed": true,
          "internalType": "uint256",
          "name": "tokenId",
          "type": "uint256"
        }
      ],
      "name": "Approval",
      "type": "event"
    },
    {
      "anonymous": false,
      "inputs": [
        {
          "indexed": true,
          "internalType": "address",
          "name": "owner",
          "type": "address"
        },
        {
          "indexed": true,
          "internalType": "address",
          "name": "operator",
          "type": "address"
        },
        {
          "indexed": false,
          "internalType": "bool",
          "name": "approved",
          "type": "bool"
        }
      ],
      "name": "ApprovalForAll",
      "type": "event"
    },
    {
      "anonymous": false,
      "inputs": [
        {
          "indexed": false,
          "internalType": "uint256",
          "name": "brainMaxLevel",
          "type": "uint256"
        }
      ],
      "name": "LandMaxLevel",
      "type": "event"
    },
    {
      "anonymous": false,
      "inputs": [
        {
          "indexed": false,
          "internalType": "address",
          "name": "land",
          "type": "address"
        }
      ],
      "name": "LandSet",
      "type": "event"
    },
    {
      "anonymous": false,
      "inputs": [
        {
          "indexed": false,
          "internalType": "uint256",
          "name": "levelIQCost",
          "type": "uint256"
        }
      ],
      "name": "LevelIQCost",
      "type": "event"
    },
    {
      "anonymous": false,
      "inputs": [
        {
          "indexed": true,
          "internalType": "bytes32",
          "name": "role",
          "type": "bytes32"
        },
        {
          "indexed": true,
          "internalType": "bytes32",
          "name": "previousAdminRole",
          "type": "bytes32"
        },
        {
          "indexed": true,
          "internalType": "bytes32",
          "name": "newAdminRole",
          "type": "bytes32"
        }
      ],
      "name": "RoleAdminChanged",
      "type": "event"
    },
    {
      "anonymous": false,
      "inputs": [
        {
          "indexed": true,
          "internalType": "bytes32",
          "name": "role",
          "type": "bytes32"
        },
        {
          "indexed": true,
          "internalType": "address",
          "name": "account",
          "type": "address"
        },
        {
          "indexed": true,
          "internalType": "address",
          "name": "sender",
          "type": "address"
        }
      ],
      "name": "RoleGranted",
      "type": "event"
    },
    {
      "anonymous": false,
      "inputs": [
        {
          "indexed": true,
          "internalType": "bytes32",
          "name": "role",
          "type": "bytes32"
        },
        {
          "indexed": true,
          "internalType": "address",
          "name": "account",
          "type": "address"
        },
        {
          "indexed": true,
          "internalType": "address",
          "name": "sender",
          "type": "address"
        }
      ],
      "name": "RoleRevoked",
      "type": "event"
    },
    {
      "anonymous": false,
      "inputs": [
        {
          "indexed": false,
          "internalType": "address",
          "name": "school",
          "type": "address"
        }
      ],
      "name": "SchoolSet",
      "type": "event"
    },
    {
      "anonymous": false,
      "inputs": [
        {
          "indexed": false,
          "internalType": "address",
          "name": "to",
          "type": "address"
        },
        {
          "indexed": false,
          "internalType": "uint256",
          "name": "tokenId",
          "type": "uint256"
        },
        {
          "indexed": false,
          "internalType": "enum SmolBrain.Gender",
          "name": "gender",
          "type": "uint8"
        }
      ],
      "name": "SmolBrainMint",
      "type": "event"
    },
    {
      "anonymous": false,
      "inputs": [
        {
          "indexed": true,
          "internalType": "address",
          "name": "from",
          "type": "address"
        },
        {
          "indexed": true,
          "internalType": "address",
          "name": "to",
          "type": "address"
        },
        {
          "indexed": true,
          "internalType": "uint256",
          "name": "tokenId",
          "type": "uint256"
        }
      ],
      "name": "Transfer",
      "type": "event"
    },
    {
      "inputs": [],
      "name": "DEFAULT_ADMIN_ROLE",
      "outputs": [
        {
          "internalType": "bytes32",
          "name": "",
          "type": "bytes32"
        }
      ],
      "stateMutability": "view",
      "type": "function"
    },
    {
      "inputs": [],
      "name": "SMOLBRAIN_MINTER_ROLE",
      "outputs": [
        {
          "internalType": "bytes32",
          "name": "",
          "type": "bytes32"
        }
      ],
      "stateMutability": "view",
      "type": "function"
    },
    {
      "inputs": [],
      "name": "SMOLBRAIN_OWNER_ROLE",
      "outputs": [
        {
          "internalType": "bytes32",
          "name": "",
          "type": "bytes32"
        }
      ],
      "stateMutability": "view",
      "type": "function"
    },
    {
      "inputs": [
        {
          "internalType": "address",
          "name": "to",
          "type": "address"
        },
        {
          "internalType": "uint256",
          "name": "tokenId",
          "type": "uint256"
        }
      ],
      "name": "approve",
      "outputs": [],
      "stateMutability": "nonpayable",
      "type": "function"
    },
    {
      "inputs": [],
      "name": "averageIQ",
      "outputs": [
        {
          "internalType": "uint256",
          "name": "",
          "type": "uint256"
        }
      ],
      "stateMutability": "view",
      "type": "function"
    },
    {
      "inputs": [
        {
          "internalType": "address",
          "name": "owner",
          "type": "address"
        }
      ],
      "name": "balanceOf",
      "outputs": [
        {
          "internalType": "uint256",
          "name": "",
          "type": "uint256"
        }
      ],
      "stateMutability": "view",
      "type": "function"
    },
    {
      "inputs": [],
      "name": "baseURI",
      "outputs": [
        {
          "internalType": "string",
          "name": "",
          "type": "string"
        }
      ],
      "stateMutability": "view",
      "type": "function"
    },
    {
      "inputs": [],
      "name": "brainMaxLevel",
      "outputs": [
        {
          "internalType": "uint256",
          "name": "",
          "type": "uint256"
        }
      ],
      "stateMutability": "view",
      "type": "function"
    },
    {
      "inputs": [
        {
          "internalType": "uint256",
          "name": "",
          "type": "uint256"
        }
      ],
      "name": "brainz",
      "outputs": [
        {
          "internalType": "uint256",
          "name": "",
          "type": "uint256"
        }
      ],
      "stateMutability": "view",
      "type": "function"
    },
    {
      "inputs": [
        {
          "internalType": "uint256",
          "name": "tokenId",
          "type": "uint256"
        }
      ],
      "name": "getApproved",
      "outputs": [
        {
          "internalType": "address",
          "name": "",
          "type": "address"
        }
      ],
      "stateMutability": "view",
      "type": "function"
    },
    {
      "inputs": [
        {
          "internalType": "uint256",
          "name": "_tokenId",
          "type": "uint256"
        }
      ],
      "name": "getGender",
      "outputs": [
        {
          "internalType": "enum SmolBrain.Gender",
          "name": "",
          "type": "uint8"
        }
      ],
      "stateMutability": "pure",
      "type": "function"
    },
    {
      "inputs": [
        {
          "internalType": "bytes32",
          "name": "role",
          "type": "bytes32"
        }
      ],
      "name": "getRoleAdmin",
      "outputs": [
        {
          "internalType": "bytes32",
          "name": "",
          "type": "bytes32"
        }
      ],
      "stateMutability": "view",
      "type": "function"
    },
    {
      "inputs": [
        {
          "internalType": "address",
          "name": "_minter",
          "type": "address"
        }
      ],
      "name": "grantMinter",
      "outputs": [],
      "stateMutability": "nonpayable",
      "type": "function"
    },
    {
      "inputs": [
        {
          "internalType": "address",
          "name": "_owner",
          "type": "address"
        }
      ],
      "name": "grantOwner",
      "outputs": [],
      "stateMutability": "nonpayable",
      "type": "function"
    },
    {
      "inputs": [
        {
          "internalType": "bytes32",
          "name": "role",
          "type": "bytes32"
        },
        {
          "internalType": "address",
          "name": "account",
          "type": "address"
        }
      ],
      "name": "grantRole",
      "outputs": [],
      "stateMutability": "nonpayable",
      "type": "function"
    },
    {
      "inputs": [
        {
          "internalType": "bytes32",
          "name": "role",
          "type": "bytes32"
        },
        {
          "internalType": "address",
          "name": "account",
          "type": "address"
        }
      ],
      "name": "hasRole",
      "outputs": [
        {
          "internalType": "bool",
          "name": "",
          "type": "bool"
        }
      ],
      "stateMutability": "view",
      "type": "function"
    },
    {
      "inputs": [
        {
          "internalType": "address",
          "name": "owner",
          "type": "address"
        },
        {
          "internalType": "address",
          "name": "operator",
          "type": "address"
        }
      ],
      "name": "isApprovedForAll",
      "outputs": [
        {
          "internalType": "bool",
          "name": "",
          "type": "bool"
        }
      ],
      "stateMutability": "view",
      "type": "function"
    },
    {
      "inputs": [
        {
          "internalType": "address",
          "name": "_minter",
          "type": "address"
        }
      ],
      "name": "isMinter",
      "outputs": [
        {
          "internalType": "bool",
          "name": "",
          "type": "bool"
        }
      ],
      "stateMutability": "view",
      "type": "function"
    },
    {
      "inputs": [
        {
          "internalType": "address",
          "name": "_owner",
          "type": "address"
        }
      ],
      "name": "isOwner",
      "outputs": [
        {
          "internalType": "bool",
          "name": "",
          "type": "bool"
        }
      ],
      "stateMutability": "view",
      "type": "function"
    },
    {
      "inputs": [],
      "name": "land",
      "outputs": [
        {
          "internalType": "contract Land",
          "name": "",
          "type": "address"
        }
      ],
      "stateMutability": "view",
      "type": "function"
    },
    {
      "inputs": [],
      "name": "levelIQCost",
      "outputs": [
        {
          "internalType": "uint256",
          "name": "",
          "type": "uint256"
        }
      ],
      "stateMutability": "view",
      "type": "function"
    },
    {
      "inputs": [
        {
          "internalType": "address",
          "name": "_to",
          "type": "address"
        }
      ],
      "name": "mintFemale",
      "outputs": [],
      "stateMutability": "nonpayable",
      "type": "function"
    },
    {
      "inputs": [
        {
          "internalType": "address",
          "name": "_to",
          "type": "address"
        }
      ],
      "name": "mintMale",
      "outputs": [],
      "stateMutability": "nonpayable",
      "type": "function"
    },
    {
      "inputs": [],
      "name": "name",
      "outputs": [
        {
          "internalType": "string",
          "name": "",
          "type": "string"
        }
      ],
      "stateMutability": "view",
      "type": "function"
    },
    {
      "inputs": [
        {
          "internalType": "uint256",
          "name": "tokenId",
          "type": "uint256"
        }
      ],
      "name": "ownerOf",
      "outputs": [
        {
          "internalType": "address",
          "name": "",
          "type": "address"
        }
      ],
      "stateMutability": "view",
      "type": "function"
    },
    {
      "inputs": [
        {
          "internalType": "bytes32",
          "name": "role",
          "type": "bytes32"
        },
        {
          "internalType": "address",
          "name": "account",
          "type": "address"
        }
      ],
      "name": "renounceRole",
      "outputs": [],
      "stateMutability": "nonpayable",
      "type": "function"
    },
    {
      "inputs": [
        {
          "internalType": "bytes32",
          "name": "role",
          "type": "bytes32"
        },
        {
          "internalType": "address",
          "name": "account",
          "type": "address"
        }
      ],
      "name": "revokeRole",
      "outputs": [],
      "stateMutability": "nonpayable",
      "type": "function"
    },
    {
      "inputs": [
        {
          "internalType": "address",
          "name": "from",
          "type": "address"
        },
        {
          "internalType": "address",
          "name": "to",
          "type": "address"
        },
        {
          "internalType": "uint256",
          "name": "tokenId",
          "type": "uint256"
        }
      ],
      "name": "safeTransferFrom",
      "outputs": [],
      "stateMutability": "nonpayable",
      "type": "function"
    },
    {
      "inputs": [
        {
          "internalType": "address",
          "name": "from",
          "type": "address"
        },
        {
          "internalType": "address",
          "name": "to",
          "type": "address"
        },
        {
          "internalType": "uint256",
          "name": "tokenId",
          "type": "uint256"
        },
        {
          "internalType": "bytes",
          "name": "_data",
          "type": "bytes"
        }
      ],
      "name": "safeTransferFrom",
      "outputs": [],
      "stateMutability": "nonpayable",
      "type": "function"
    },
    {
      "inputs": [
        {
          "internalType": "uint256",
          "name": "_tokenId",
          "type": "uint256"
        }
      ],
      "name": "scanBrain",
      "outputs": [
        {
          "internalType": "uint256",
          "name": "IQ",
          "type": "uint256"
        }
      ],
      "stateMutability": "view",
      "type": "function"
    },
    {
      "inputs": [],
      "name": "school",
      "outputs": [
        {
          "internalType": "contract School",
          "name": "",
          "type": "address"
        }
      ],
      "stateMutability": "view",
      "type": "function"
    },
    {
      "inputs": [
        {
          "internalType": "uint256",
          "name": "_tokenId",
          "type": "uint256"
        },
        {
          "internalType": "uint256",
          "name": "_iqEarned",
          "type": "uint256"
        }
      ],
      "name": "schoolDrop",
      "outputs": [],
      "stateMutability": "nonpayable",
      "type": "function"
    },
    {
      "inputs": [
        {
          "internalType": "address",
          "name": "operator",
          "type": "address"
        },
        {
          "internalType": "bool",
          "name": "approved",
          "type": "bool"
        }
      ],
      "name": "setApprovalForAll",
      "outputs": [],
      "stateMutability": "nonpayable",
      "type": "function"
    },
    {
      "inputs": [
        {
          "internalType": "string",
          "name": "_baseURItoSet",
          "type": "string"
        }
      ],
      "name": "setBaseURI",
      "outputs": [],
      "stateMutability": "nonpayable",
      "type": "function"
    },
    {
      "inputs": [
        {
          "internalType": "address",
          "name": "_land",
          "type": "address"
        }
      ],
      "name": "setLand",
      "outputs": [],
      "stateMutability": "nonpayable",
      "type": "function"
    },
    {
      "inputs": [
        {
          "internalType": "uint256",
          "name": "_levelIQCost",
          "type": "uint256"
        }
      ],
      "name": "setLevelIQCost",
      "outputs": [],
      "stateMutability": "nonpayable",
      "type": "function"
    },
    {
      "inputs": [
        {
          "internalType": "uint256",
          "name": "_brainMaxLevel",
          "type": "uint256"
        }
      ],
      "name": "setMaxLevel",
      "outputs": [],
      "stateMutability": "nonpayable",
      "type": "function"
    },
    {
      "inputs": [
        {
          "internalType": "address",
          "name": "_school",
          "type": "address"
        }
      ],
      "name": "setSchool",
      "outputs": [],
      "stateMutability": "nonpayable",
      "type": "function"
    },
    {
      "inputs": [
        {
          "internalType": "bytes4",
          "name": "interfaceId",
          "type": "bytes4"
        }
      ],
      "name": "supportsInterface",
      "outputs": [
        {
          "internalType": "bool",
          "name": "",
          "type": "bool"
        }
      ],
      "stateMutability": "view",
      "type": "function"
    },
    {
      "inputs": [],
      "name": "symbol",
      "outputs": [
        {
          "internalType": "string",
          "name": "",
          "type": "string"
        }
      ],
      "stateMutability": "view",
      "type": "function"
    },
    {
      "inputs": [
        {
          "internalType": "uint256",
          "name": "index",
          "type": "uint256"
        }
      ],
      "name": "tokenByIndex",
      "outputs": [
        {
          "internalType": "uint256",
          "name": "",
          "type": "uint256"
        }
      ],
      "stateMutability": "view",
      "type": "function"
    },
    {
      "inputs": [
        {
          "internalType": "address",
          "name": "owner",
          "type": "address"
        },
        {
          "internalType": "uint256",
          "name": "index",
          "type": "uint256"
        }
      ],
      "name": "tokenOfOwnerByIndex",
      "outputs": [
        {
          "internalType": "uint256",
          "name": "",
          "type": "uint256"
        }
      ],
      "stateMutability": "view",
      "type": "function"
    },
    {
      "inputs": [
        {
          "internalType": "uint256",
          "name": "_tokenId",
          "type": "uint256"
        }
      ],
      "name": "tokenURI",
      "outputs": [
        {
          "internalType": "string",
          "name": "",
          "type": "string"
        }
      ],
      "stateMutability": "view",
      "type": "function"
    },
    {
      "inputs": [],
      "name": "totalSupply",
      "outputs": [
        {
          "internalType": "uint256",
          "name": "",
          "type": "uint256"
        }
      ],
      "stateMutability": "view",
      "type": "function"
    },
    {
      "inputs": [
        {
          "internalType": "address",
          "name": "from",
          "type": "address"
        },
        {
          "internalType": "address",
          "name": "to",
          "type": "address"
        },
        {
          "internalType": "uint256",
          "name": "tokenId",
          "type": "uint256"
        }
      ],
      "name": "transferFrom",
      "outputs": [],
      "stateMutability": "nonpayable",
      "type": "function"
    }
  ],
  "transactionHash": "0xabb69e0c876ca2ec42f57c38cf2f905a556aabba9b7ee114bd00907e3aef062c",
  "args": [
    "0x8212032375F79eaF70068c7B4182f31c2af1F164"
  ],
  "solcInputHash": "46ff15ae2ecfdaf8bc741a1f67ab9209",
  "bytecode": "0x60806040523480156200001157600080fd5b5060405162003c4c38038062003c4c833981016040819052620000349162000d11565b6040518060400160405280600a81526020016929b6b7b610213930b4b760b11b8152506040518060400160405280600981526020016829b6b7b6213930b4b760b91b8152506200009a60008051602062003c0c833981519152806200014660201b60201c565b620000d57f4ace3e268e2421ceda36da4af4120747b9ba01b2932e46e900cf59bc0826464260008051602062003c0c83398151915262000146565b620000f060008051602062003c0c8339815191523362000191565b81516200010590600190602085019062000c6b565b5080516200011b90600290602084019062000c6b565b505050611a3660016200012f919062000e6c565b600c556200013f816000620001a1565b5062000f36565b600082815260208190526040808220600101805490849055905190918391839186917fbd79b86ffe0ab8e8776151514217cd7cacd52c909f66475c3af44e129f0b00ff9190a4505050565b6200019d828262000319565b5050565b600080826001811115620001b957620001b962000ef4565b14156200024957620001d7600b620003b960201b620013801760201c565b9050620001f0600b620003bd60201b620013841760201c565b611a36811115620002435760405162461bcd60e51b81526020600482015260248082015260008051602062003c2c8339815191526044820152636d616c6560e01b60648201526084015b60405180910390fd5b620002cb565b62000260600c620003b960201b620013801760201c565b905062000279600c620003bd60201b620013841760201c565b61346d811115620002cb5760405162461bcd60e51b8152602060048201526026602482015260008051602062003c2c83398151915260448201526566656d616c6560d01b60648201526084016200023a565b7f560f11076e2121ecfa36657b5c94ab36dd72447932c1e722fe9e48d860f069d6838284604051620003009392919062000e28565b60405180910390a1620003148382620003c6565b505050565b6000828152602081815260408083206001600160a01b038516845290915290205460ff166200019d576000828152602081815260408083206001600160a01b03851684529091529020805460ff19166001179055620003753390565b6001600160a01b0316816001600160a01b0316837f2f8788117e7eff1d82e926ec794901d17c78024a50270940304540a733656f0d60405160405180910390a45050565b5490565b80546001019055565b6200019d828260405180602001604052806000815250620003e860201b60201c565b620003f483836200045b565b620004036000848484620005b1565b620003145760405162461bcd60e51b8152602060048201526032602482015260008051602062003bec83398151915260448201527131b2b4bb32b91034b6b83632b6b2b73a32b960711b60648201526084016200023a565b6001600160a01b038216620004b35760405162461bcd60e51b815260206004820181905260248201527f4552433732313a206d696e7420746f20746865207a65726f206164647265737360448201526064016200023a565b6000818152600360205260409020546001600160a01b0316156200051a5760405162461bcd60e51b815260206004820152601c60248201527f4552433732313a20746f6b656e20616c7265616479206d696e7465640000000060448201526064016200023a565b62000528600083836200071a565b6001600160a01b03821660009081526004602052604081208054600192906200055390849062000e6c565b909155505060008181526003602052604080822080546001600160a01b0319166001600160a01b03861690811790915590518392907fddf252ad1be2c89b69c2b068fc378daa952ba7f163c4a11628f55a4df523b3ef908290a45050565b6000620005d2846001600160a01b03166200094860201b6200138d1760201c565b156200070e57604051630a85bd0160e11b81526001600160a01b0385169063150b7a02906200060c90339089908890889060040162000dad565b602060405180830381600087803b1580156200062757600080fd5b505af19250505080156200065a575060408051601f3d908101601f19168201909252620006579181019062000d67565b60015b620006f3573d8080156200068b576040519150601f19603f3d011682016040523d82523d6000602084013e62000690565b606091505b508051620006eb5760405162461bcd60e51b8152602060048201526032602482015260008051602062003bec83398151915260448201527131b2b4bb32b91034b6b83632b6b2b73a32b960711b60648201526084016200023a565b805181602001fd5b6001600160e01b031916630a85bd0160e11b14905062000712565b5060015b949350505050565b620007328383836200094e60201b620013931760201c565b6010546001600160a01b0316156200082d57601054604051637af9928160e11b8152600481018390526001600160a01b039091169063f5f325029060240160206040518083038186803b1580156200078957600080fd5b505afa1580156200079e573d6000803e3d6000fd5b505050506040513d601f19601f82011682018060405250810190620007c4919062000d43565b156200082d5760405162461bcd60e51b815260206004820152603160248201527f536d6f6c427261696e3a206973206174207363686f6f6c2e2044726f702073636044820152703437b7b6103a37903a3930b739b332b91760791b60648201526084016200023a565b6001600160a01b038316156200031457601154604051632f745c5960e01b81526001600160a01b03858116600483015260006024830152909116906381151e67908290632f745c599060440160206040518083038186803b1580156200089257600080fd5b505afa158015620008a7573d6000803e3d6000fd5b505050506040513d601f19601f82011682018060405250810190620008cd919062000d93565b6040518263ffffffff1660e01b8152600401620008ec91815260200190565b602060405180830381600087803b1580156200090757600080fd5b505af11580156200091c573d6000803e3d6000fd5b505050506040513d601f19601f8201168201806040525081019062000942919062000d43565b50505050565b3b151590565b620009668383836200031460201b6200091e1760201c565b6001600160a01b038316620009c457620009be81600980546000838152600a60205260408120829055600182018355919091527f6e1540171b6c0c960b71a7020d9f60077f6af931a8bbf590da0223dacf75c7af0155565b620009ea565b816001600160a01b0316836001600160a01b031614620009ea57620009ea838262000a2a565b6001600160a01b03821662000a0457620003148162000ad7565b826001600160a01b0316826001600160a01b031614620003145762000314828262000b91565b6000600162000a448462000be260201b62000eb71760201c565b62000a50919062000e87565b60008381526008602052604090205490915080821462000aa4576001600160a01b03841660009081526007602090815260408083208584528252808320548484528184208190558352600890915290208190555b5060009182526008602090815260408084208490556001600160a01b039094168352600781528383209183525290812055565b60095460009062000aeb9060019062000e87565b6000838152600a60205260408120546009805493945090928490811062000b165762000b1662000f20565b90600052602060002001549050806009838154811062000b3a5762000b3a62000f20565b6000918252602080832090910192909255828152600a9091526040808220849055858252812055600980548062000b755762000b7562000f0a565b6001900381819060005260206000200160009055905550505050565b600062000ba98362000be260201b62000eb71760201c565b6001600160a01b039093166000908152600760209081526040808320868452825280832085905593825260089052919091209190915550565b60006001600160a01b03821662000c4f5760405162461bcd60e51b815260206004820152602a60248201527f4552433732313a2062616c616e636520717565727920666f7220746865207a65604482015269726f206164647265737360b01b60648201526084016200023a565b506001600160a01b031660009081526004602052604090205490565b82805462000c799062000ea1565b90600052602060002090601f01602090048101928262000c9d576000855562000ce8565b82601f1062000cb857805160ff191683800117855562000ce8565b8280016001018555821562000ce8579182015b8281111562000ce857825182559160200191906001019062000ccb565b5062000cf692915062000cfa565b5090565b5b8082111562000cf6576000815560010162000cfb565b60006020828403121562000d2457600080fd5b81516001600160a01b038116811462000d3c57600080fd5b9392505050565b60006020828403121562000d5657600080fd5b8151801515811462000d3c57600080fd5b60006020828403121562000d7a57600080fd5b81516001600160e01b03198116811462000d3c57600080fd5b60006020828403121562000da657600080fd5b5051919050565b600060018060a01b038087168352602081871681850152856040850152608060608501528451915081608085015260005b8281101562000dfc5785810182015185820160a00152810162000dde565b8281111562000e0f57600060a084870101525b5050601f01601f19169190910160a00195945050505050565b6001600160a01b038416815260208101839052606081016002831062000e5e57634e487b7160e01b600052602160045260246000fd5b826040830152949350505050565b6000821982111562000e825762000e8262000ede565b500190565b60008282101562000e9c5762000e9c62000ede565b500390565b600181811c9082168062000eb657607f821691505b6020821081141562000ed857634e487b7160e01b600052602260045260246000fd5b50919050565b634e487b7160e01b600052601160045260246000fd5b634e487b7160e01b600052602160045260246000fd5b634e487b7160e01b600052603160045260246000fd5b634e487b7160e01b600052603260045260246000fd5b612ca68062000f466000396000f3fe608060405234801561001057600080fd5b506004361061027f5760003560e01c80636c0360eb1161015c57806395d89b41116100ce578063c87b56dd11610087578063c87b56dd14610590578063d547741f146105a3578063d57cd145146105b6578063dc978059146105c9578063e06d2eb5146105dc578063e985e9c5146105fc57600080fd5b806395d89b4114610520578063a217fddf14610528578063a22cb46514610530578063a48e005114610543578063aa271e1a1461056a578063b88d4fde1461057d57600080fd5b80637dd6bda9116101205780637dd6bda9146104b8578063812c8d5f146104c157806381d9e0cf146104d4578063861b3fe7146104e75780638c980129146104fa57806391d148541461050d57600080fd5b80636c0360eb146104615780636c92120d146104695780636d6e3bf01461047c5780636f27535d1461048557806370a08231146104a557600080fd5b8063261707fa116101f557806336568abe116101b957806336568abe146103ef57806341268ea11461040257806342842e0e146104155780634f6ccce71461042857806355f804b31461043b5780636352211e1461044e57600080fd5b8063261707fa146103905780632f2ff15d146103a35780632f54bf6e146103b65780632f745c59146103c9578063344f1ba5146103dc57600080fd5b8063095ea7b311610247578063095ea7b3146103245780630ec3d6341461033757806318160ddd1461033f5780631d173ea21461034757806323b872dd1461035a578063248a9ca31461036d57600080fd5b806301ffc9a71461028457806302ed29e0146102ac57806306fdde03146102cf578063081812fc146102e4578063082955171461030f575b600080fd5b61029761029236600461268d565b610638565b60405190151581526020015b60405180910390f35b6102c1600080516020612c5183398151915281565b6040519081526020016102a3565b6102d7610658565b6040516102a39190612950565b6102f76102f2366004612651565b6106ea565b6040516001600160a01b0390911681526020016102a3565b61032261031d3660046124cd565b610784565b005b61032261033236600461260a565b61080d565b6102c1610923565b6009546102c1565b6103226103553660046124cd565b6109d0565b61032261036836600461251b565b610a03565b6102c161037b366004612651565b60009081526020819052604090206001015490565b61032261039e3660046124cd565b610a34565b6103226103b136600461266a565b610a5a565b6102976103c43660046124cd565b610a80565b6102c16103d736600461260a565b610a9a565b6103226103ea366004612651565b610b30565b6103226103fd36600461266a565b610b99565b610322610410366004612729565b610c17565b61032261042336600461251b565b610c8d565b6102c1610436366004612651565b610ca8565b6103226104493660046126c7565b610d3b565b6102f761045c366004612651565b610d82565b6102d7610df9565b6103226104773660046124cd565b610e87565b6102c1600f5481565b6102c1610493366004612651565b60126020526000908152604090205481565b6102c16104b33660046124cd565b610eb7565b6102c1600e5481565b6010546102f7906001600160a01b031681565b6103226104e23660046124cd565b610f3e565b6102c16104f5366004612651565b610fc0565b6011546102f7906001600160a01b031681565b61029761051b36600461266a565b611056565b6102d761107f565b6102c1600081565b61032261053e3660046125d3565b61108e565b6102c17f4ace3e268e2421ceda36da4af4120747b9ba01b2932e46e900cf59bc0826464281565b6102976105783660046124cd565b611153565b61032261058b366004612557565b61117f565b6102d761059e366004612651565b6111b7565b6103226105b136600461266a565b6112be565b6103226105c4366004612651565b6112e4565b6103226105d73660046124cd565b61134d565b6105ef6105ea366004612651565b611365565b6040516102a39190612942565b61029761060a3660046124e8565b6001600160a01b03918216600090815260066020908152604080832093909416825291909152205460ff1690565b60006106438261144b565b80610652575061065282611470565b92915050565b60606001805461066790612b3e565b80601f016020809104026020016040519081016040528092919081815260200182805461069390612b3e565b80156106e05780601f106106b5576101008083540402835291602001916106e0565b820191906000526020600020905b8154815290600101906020018083116106c357829003601f168201915b5050505050905090565b6000818152600360205260408120546001600160a01b03166107685760405162461bcd60e51b815260206004820152602c60248201527f4552433732313a20617070726f76656420717565727920666f72206e6f6e657860448201526b34b9ba32b73a103a37b5b2b760a11b60648201526084015b60405180910390fd5b506000908152600560205260409020546001600160a01b031690565b61079c600080516020612c5183398151915233611056565b6107b85760405162461bcd60e51b815260040161075f906129ff565b601080546001600160a01b0319166001600160a01b0383169081179091556040519081527fbb93ca4e17ebec368688a7c3a5f0ac6e0c42141f20ef618b4098e518450a88eb906020015b60405180910390a150565b600061081882610d82565b9050806001600160a01b0316836001600160a01b031614156108865760405162461bcd60e51b815260206004820152602160248201527f4552433732313a20617070726f76616c20746f2063757272656e74206f776e656044820152603960f91b606482015260840161075f565b336001600160a01b03821614806108a257506108a2813361060a565b6109145760405162461bcd60e51b815260206004820152603860248201527f4552433732313a20617070726f76652063616c6c6572206973206e6f74206f7760448201527f6e6572206e6f7220617070726f76656420666f7220616c6c0000000000000000606482015260840161075f565b61091e83836114a5565b505050565b600061092e60095490565b6109385750600090565b6010546040805163c12cfbef60e01b815290516000926001600160a01b03169163c12cfbef916004808301926020929190829003018186803b15801561097d57600080fd5b505afa158015610991573d6000803e3d6000fd5b505050506040513d601f19601f820116820180604052508101906109b59190612710565b90506109c060095490565b6109ca9082612ab1565b91505090565b6109d933611153565b6109f55760405162461bcd60e51b815260040161075f90612963565b610a00816000611513565b50565b610a0d338261164f565b610a295760405162461bcd60e51b815260040161075f90612a48565b61091e838383611746565b610a007f4ace3e268e2421ceda36da4af4120747b9ba01b2932e46e900cf59bc08264642825b600082815260208190526040902060010154610a7681336118f1565b61091e8383611955565b6000610652600080516020612c5183398151915283611056565b6000610aa583610eb7565b8210610b075760405162461bcd60e51b815260206004820152602b60248201527f455243373231456e756d657261626c653a206f776e657220696e646578206f7560448201526a74206f6620626f756e647360a81b606482015260840161075f565b506001600160a01b03919091166000908152600760209081526040808320938352929052205490565b610b48600080516020612c5183398151915233611056565b610b645760405162461bcd60e51b815260040161075f906129ff565b600e8190556040518181527f2f61ebe91f71a0e705900e252d50f1e06077072fb7f9f7d06a4d609059bb3f0d90602001610802565b6001600160a01b0381163314610c095760405162461bcd60e51b815260206004820152602f60248201527f416363657373436f6e74726f6c3a2063616e206f6e6c792072656e6f756e636560448201526e103937b632b9903337b91039b2b63360891b606482015260840161075f565b610c1382826119d9565b5050565b6010546001600160a01b03163314610c665760405162461bcd60e51b815260206004820152601260248201527114db5bdb109c985a5b8e88085cd8da1bdbdb60721b604482015260640161075f565b60008281526012602052604081208054839290610c84908490612a99565b90915550505050565b61091e8383836040518060200160405280600081525061117f565b6000610cb360095490565b8210610d165760405162461bcd60e51b815260206004820152602c60248201527f455243373231456e756d657261626c653a20676c6f62616c20696e646578206f60448201526b7574206f6620626f756e647360a01b606482015260840161075f565b60098281548110610d2957610d29612c00565b90600052602060002001549050919050565b610d53600080516020612c5183398151915233611056565b610d6f5760405162461bcd60e51b815260040161075f906129ff565b8051610c1390600d9060208401906123a2565b6000818152600360205260408120546001600160a01b0316806106525760405162461bcd60e51b815260206004820152602960248201527f4552433732313a206f776e657220717565727920666f72206e6f6e657869737460448201526832b73a103a37b5b2b760b91b606482015260840161075f565b600d8054610e0690612b3e565b80601f0160208091040260200160405190810160405280929190818152602001828054610e3290612b3e565b8015610e7f5780601f10610e5457610100808354040283529160200191610e7f565b820191906000526020600020905b815481529060010190602001808311610e6257829003601f168201915b505050505081565b610e9033611153565b610eac5760405162461bcd60e51b815260040161075f90612963565b610a00816001611513565b60006001600160a01b038216610f225760405162461bcd60e51b815260206004820152602a60248201527f4552433732313a2062616c616e636520717565727920666f7220746865207a65604482015269726f206164647265737360b01b606482015260840161075f565b506001600160a01b031660009081526004602052604090205490565b610f56600080516020612c5183398151915233611056565b610f725760405162461bcd60e51b815260040161075f906129ff565b601180546001600160a01b0319166001600160a01b0383169081179091556040519081527f960cb2318d7d27adc21905c96c7dbb70f68c7b6412cf0f55247dea6e213828c390602001610802565b60105460405163457cb58560e01b8152600481018390526000916001600160a01b03169063457cb5859060240160206040518083038186803b15801561100557600080fd5b505afa158015611019573d6000803e3d6000fd5b505050506040513d601f19601f8201168201806040525081019061103d9190612710565b6000838152601260205260409020546106529190612a99565b6000918252602082815260408084206001600160a01b0393909316845291905290205460ff1690565b60606002805461066790612b3e565b6001600160a01b0382163314156110e75760405162461bcd60e51b815260206004820152601960248201527f4552433732313a20617070726f766520746f2063616c6c657200000000000000604482015260640161075f565b3360008181526006602090815260408083206001600160a01b03871680855290835292819020805460ff191686151590811790915590519081529192917f17307eab39ab6107e8899845ad3d59bd9653f200f220920489ca2b5937696c31910160405180910390a35050565b60006106527f4ace3e268e2421ceda36da4af4120747b9ba01b2932e46e900cf59bc0826464283611056565b611189338361164f565b6111a55760405162461bcd60e51b815260040161075f90612a48565b6111b184848484611a3e565b50505050565b6000818152600360205260409020546060906001600160a01b03166112315760405162461bcd60e51b815260206004820152602a60248201527f536d6f6c427261696e3a2055524920717565727920666f72206e6f6e657869736044820152693a32b73a103a37b5b2b760b11b606482015260840161075f565b6000611254600f5461124285610fc0565b61124c9190612ab1565b600e54611a71565b90506000600d805461126590612b3e565b90501161128157604051806020016040528060008152506112b7565b600d61128c84611a87565b61129583611a87565b6040516020016112a7939291906127b5565b6040516020818303038152906040525b9392505050565b6000828152602081905260409020600101546112da81336118f1565b61091e83836119d9565b6112fc600080516020612c5183398151915233611056565b6113185760405162461bcd60e51b815260040161075f906129ff565b600f8190556040518181527f8b417e0974ccf6cbb52930652bacdfadbcffd507164c6d693038e721f05138a690602001610802565b610a00600080516020612c5183398151915282610a5a565b6000611a36821115611378576001610652565b600092915050565b5490565b80546001019055565b3b151590565b6001600160a01b0383166113ee576113e981600980546000838152600a60205260408120829055600182018355919091527f6e1540171b6c0c960b71a7020d9f60077f6af931a8bbf590da0223dacf75c7af0155565b611411565b816001600160a01b0316836001600160a01b031614611411576114118382611b85565b6001600160a01b0382166114285761091e81611c22565b826001600160a01b0316826001600160a01b03161461091e5761091e8282611cd1565b60006001600160e01b0319821663780e9d6360e01b1480610652575061065282611d15565b60006001600160e01b03198216637965db0b60e01b148061065257506301ffc9a760e01b6001600160e01b0319831614610652565b600081815260056020526040902080546001600160a01b0319166001600160a01b03841690811790915581906114da82610d82565b6001600160a01b03167f8c5be1e5ebec7d5bd14f71427d1e84f3dd0314c0f7b2291e5b200ac8c7c3b92560405160405180910390a45050565b60008082600181111561152857611528612bd4565b141561159d5750600b805460018101909155611a368111156115985760405162461bcd60e51b8152602060048201526024808201527f536d6f6c427261696e3a20657863656564656420746f6b656e496420666f72206044820152636d616c6560e01b606482015260840161075f565b61160a565b50600c80546001810190915561346d81111561160a5760405162461bcd60e51b815260206004820152602660248201527f536d6f6c427261696e3a20657863656564656420746f6b656e496420666f722060448201526566656d616c6560d01b606482015260840161075f565b7f560f11076e2121ecfa36657b5c94ab36dd72447932c1e722fe9e48d860f069d683828460405161163d9392919061291e565b60405180910390a161091e8382611d54565b6000818152600360205260408120546001600160a01b03166116c85760405162461bcd60e51b815260206004820152602c60248201527f4552433732313a206f70657261746f7220717565727920666f72206e6f6e657860448201526b34b9ba32b73a103a37b5b2b760a11b606482015260840161075f565b60006116d383610d82565b9050806001600160a01b0316846001600160a01b0316148061170e5750836001600160a01b0316611703846106ea565b6001600160a01b0316145b8061173e57506001600160a01b0380821660009081526006602090815260408083209388168352929052205460ff165b949350505050565b826001600160a01b031661175982610d82565b6001600160a01b0316146117c15760405162461bcd60e51b815260206004820152602960248201527f4552433732313a207472616e73666572206f6620746f6b656e2074686174206960448201526839903737ba1037bbb760b91b606482015260840161075f565b6001600160a01b0382166118235760405162461bcd60e51b8152602060048201526024808201527f4552433732313a207472616e7366657220746f20746865207a65726f206164646044820152637265737360e01b606482015260840161075f565b61182e838383611d6e565b6118396000826114a5565b6001600160a01b0383166000908152600460205260408120805460019290611862908490612ae4565b90915550506001600160a01b0382166000908152600460205260408120805460019290611890908490612a99565b909155505060008181526003602052604080822080546001600160a01b0319166001600160a01b0386811691821790925591518493918716917fddf252ad1be2c89b69c2b068fc378daa952ba7f163c4a11628f55a4df523b3ef91a4505050565b6118fb8282611056565b610c1357611913816001600160a01b03166014611f78565b61191e836020611f78565b60405160200161192f929190612876565b60408051601f198184030181529082905262461bcd60e51b825261075f91600401612950565b61195f8282611056565b610c13576000828152602081815260408083206001600160a01b03851684529091529020805460ff191660011790556119953390565b6001600160a01b0316816001600160a01b0316837f2f8788117e7eff1d82e926ec794901d17c78024a50270940304540a733656f0d60405160405180910390a45050565b6119e38282611056565b15610c13576000828152602081815260408083206001600160a01b0385168085529252808320805460ff1916905551339285917ff6391f5c32d9c69d2a47ea670b442974b53935d1edc7fd64eb21e047a839171b9190a45050565b611a49848484611746565b611a5584848484612114565b6111b15760405162461bcd60e51b815260040161075f906129ad565b6000818310611a8057816112b7565b5090919050565b606081611aab5750506040805180820190915260018152600360fc1b602082015290565b8160005b8115611ad55780611abf81612b79565b9150611ace9050600a83612ab1565b9150611aaf565b60008167ffffffffffffffff811115611af057611af0612c16565b6040519080825280601f01601f191660200182016040528015611b1a576020820181803683370190505b5090505b841561173e57611b2f600183612ae4565b9150611b3c600a86612b94565b611b47906030612a99565b60f81b818381518110611b5c57611b5c612c00565b60200101906001600160f81b031916908160001a905350611b7e600a86612ab1565b9450611b1e565b60006001611b9284610eb7565b611b9c9190612ae4565b600083815260086020526040902054909150808214611bef576001600160a01b03841660009081526007602090815260408083208584528252808320548484528184208190558352600890915290208190555b5060009182526008602090815260408084208490556001600160a01b039094168352600781528383209183525290812055565b600954600090611c3490600190612ae4565b6000838152600a602052604081205460098054939450909284908110611c5c57611c5c612c00565b906000526020600020015490508060098381548110611c7d57611c7d612c00565b6000918252602080832090910192909255828152600a90915260408082208490558582528120556009805480611cb557611cb5612bea565b6001900381819060005260206000200160009055905550505050565b6000611cdc83610eb7565b6001600160a01b039093166000908152600760209081526040808320868452825280832085905593825260089052919091209190915550565b60006001600160e01b031982166380ac58cd60e01b148061064357506001600160e01b03198216635b5e139f60e01b1480610652575061065282611470565b610c13828260405180602001604052806000815250612221565b611d79838383611393565b6010546001600160a01b031615611e6d57601054604051637af9928160e11b8152600481018390526001600160a01b039091169063f5f325029060240160206040518083038186803b158015611dce57600080fd5b505afa158015611de2573d6000803e3d6000fd5b505050506040513d601f19601f82011682018060405250810190611e069190612634565b15611e6d5760405162461bcd60e51b815260206004820152603160248201527f536d6f6c427261696e3a206973206174207363686f6f6c2e2044726f702073636044820152703437b7b6103a37903a3930b739b332b91760791b606482015260840161075f565b6001600160a01b0383161561091e57601154604051632f745c5960e01b81526001600160a01b03858116600483015260006024830152909116906381151e67908290632f745c599060440160206040518083038186803b158015611ed057600080fd5b505afa158015611ee4573d6000803e3d6000fd5b505050506040513d601f19601f82011682018060405250810190611f089190612710565b6040518263ffffffff1660e01b8152600401611f2691815260200190565b602060405180830381600087803b158015611f4057600080fd5b505af1158015611f54573d6000803e3d6000fd5b505050506040513d601f19601f820116820180604052508101906111b19190612634565b60606000611f87836002612ac5565b611f92906002612a99565b67ffffffffffffffff811115611faa57611faa612c16565b6040519080825280601f01601f191660200182016040528015611fd4576020820181803683370190505b509050600360fc1b81600081518110611fef57611fef612c00565b60200101906001600160f81b031916908160001a905350600f60fb1b8160018151811061201e5761201e612c00565b60200101906001600160f81b031916908160001a9053506000612042846002612ac5565b61204d906001612a99565b90505b60018111156120c5576f181899199a1a9b1b9c1cb0b131b232b360811b85600f166010811061208157612081612c00565b1a60f81b82828151811061209757612097612c00565b60200101906001600160f81b031916908160001a90535060049490941c936120be81612b27565b9050612050565b5083156112b75760405162461bcd60e51b815260206004820181905260248201527f537472696e67733a20686578206c656e67746820696e73756666696369656e74604482015260640161075f565b60006001600160a01b0384163b1561221657604051630a85bd0160e11b81526001600160a01b0385169063150b7a02906121589033908990889088906004016128eb565b602060405180830381600087803b15801561217257600080fd5b505af19250505080156121a2575060408051601f3d908101601f1916820190925261219f918101906126aa565b60015b6121fc573d8080156121d0576040519150601f19603f3d011682016040523d82523d6000602084013e6121d5565b606091505b5080516121f45760405162461bcd60e51b815260040161075f906129ad565b805181602001fd5b6001600160e01b031916630a85bd0160e11b14905061173e565b506001949350505050565b61222b8383612254565b6122386000848484612114565b61091e5760405162461bcd60e51b815260040161075f906129ad565b6001600160a01b0382166122aa5760405162461bcd60e51b815260206004820181905260248201527f4552433732313a206d696e7420746f20746865207a65726f2061646472657373604482015260640161075f565b6000818152600360205260409020546001600160a01b03161561230f5760405162461bcd60e51b815260206004820152601c60248201527f4552433732313a20746f6b656e20616c7265616479206d696e74656400000000604482015260640161075f565b61231b60008383611d6e565b6001600160a01b0382166000908152600460205260408120805460019290612344908490612a99565b909155505060008181526003602052604080822080546001600160a01b0319166001600160a01b03861690811790915590518392907fddf252ad1be2c89b69c2b068fc378daa952ba7f163c4a11628f55a4df523b3ef908290a45050565b8280546123ae90612b3e565b90600052602060002090601f0160209004810192826123d05760008555612416565b82601f106123e957805160ff1916838001178555612416565b82800160010185558215612416579182015b828111156124165782518255916020019190600101906123fb565b50612422929150612426565b5090565b5b808211156124225760008155600101612427565b600067ffffffffffffffff8084111561245657612456612c16565b604051601f8501601f19908116603f0116810190828211818310171561247e5761247e612c16565b8160405280935085815286868601111561249757600080fd5b858560208301376000602087830101525050509392505050565b80356001600160a01b03811681146124c857600080fd5b919050565b6000602082840312156124df57600080fd5b6112b7826124b1565b600080604083850312156124fb57600080fd5b612504836124b1565b9150612512602084016124b1565b90509250929050565b60008060006060848603121561253057600080fd5b612539846124b1565b9250612547602085016124b1565b9150604084013590509250925092565b6000806000806080858703121561256d57600080fd5b612576856124b1565b9350612584602086016124b1565b925060408501359150606085013567ffffffffffffffff8111156125a757600080fd5b8501601f810187136125b857600080fd5b6125c78782356020840161243b565b91505092959194509250565b600080604083850312156125e657600080fd5b6125ef836124b1565b915060208301356125ff81612c2c565b809150509250929050565b6000806040838503121561261d57600080fd5b612626836124b1565b946020939093013593505050565b60006020828403121561264657600080fd5b81516112b781612c2c565b60006020828403121561266357600080fd5b5035919050565b6000806040838503121561267d57600080fd5b82359150612512602084016124b1565b60006020828403121561269f57600080fd5b81356112b781612c3a565b6000602082840312156126bc57600080fd5b81516112b781612c3a565b6000602082840312156126d957600080fd5b813567ffffffffffffffff8111156126f057600080fd5b8201601f8101841361270157600080fd5b61173e8482356020840161243b565b60006020828403121561272257600080fd5b5051919050565b6000806040838503121561273c57600080fd5b50508035926020909101359150565b60008151808452612763816020860160208601612afb565b601f01601f19169290920160200192915050565b6002811061279557634e487b7160e01b600052602160045260246000fd5b9052565b600081516127ab818560208601612afb565b9290920192915050565b600080855481600182811c9150808316806127d157607f831692505b60208084108214156127f157634e487b7160e01b86526022600452602486fd5b818015612805576001811461281657612843565b60ff19861689528489019650612843565b60008c81526020902060005b8681101561283b5781548b820152908501908301612822565b505084890196505b50505050505061286c6128666128598388612799565b602f60f81b815260010190565b85612799565b9695505050505050565b7f416363657373436f6e74726f6c3a206163636f756e74200000000000000000008152600083516128ae816017850160208801612afb565b7001034b99036b4b9b9b4b733903937b6329607d1b60179184019182015283516128df816028840160208801612afb565b01602801949350505050565b6001600160a01b038581168252841660208201526040810183905260806060820181905260009061286c9083018461274b565b6001600160a01b0384168152602081018390526060810161173e6040830184612777565b602081016106528284612777565b6020815260006112b7602083018461274b565b6020808252602a908201527f4d696e746572436f6e74726f6c3a206e6f74206120534d4f4c425241494e5f4d604082015269494e5445525f524f4c4560b01b606082015260800190565b60208082526032908201527f4552433732313a207472616e7366657220746f206e6f6e20455243373231526560408201527131b2b4bb32b91034b6b83632b6b2b73a32b960711b606082015260800190565b60208082526029908201527f4d696e746572436f6e74726f6c3a206e6f74206120534d4f4c425241494e5f4f604082015268574e45525f524f4c4560b81b606082015260800190565b60208082526031908201527f4552433732313a207472616e736665722063616c6c6572206973206e6f74206f6040820152701ddb995c881b9bdc88185c1c1c9bdd9959607a1b606082015260800190565b60008219821115612aac57612aac612ba8565b500190565b600082612ac057612ac0612bbe565b500490565b6000816000190483118215151615612adf57612adf612ba8565b500290565b600082821015612af657612af6612ba8565b500390565b60005b83811015612b16578181015183820152602001612afe565b838111156111b15750506000910152565b600081612b3657612b36612ba8565b506000190190565b600181811c90821680612b5257607f821691505b60208210811415612b7357634e487b7160e01b600052602260045260246000fd5b50919050565b6000600019821415612b8d57612b8d612ba8565b5060010190565b600082612ba357612ba3612bbe565b500690565b634e487b7160e01b600052601160045260246000fd5b634e487b7160e01b600052601260045260246000fd5b634e487b7160e01b600052602160045260246000fd5b634e487b7160e01b600052603160045260246000fd5b634e487b7160e01b600052603260045260246000fd5b634e487b7160e01b600052604160045260246000fd5b8015158114610a0057600080fd5b6001600160e01b031981168114610a0057600080fdfecffa9b50753c7b5036f84470434f5fc280bacb0c75da644f758e47448764b1fda264697066735822122029930652494c1e137b1363a560550fc581b13ac3fe1db8de02e2f1e0176d722b64736f6c634300080700334552433732313a207472616e7366657220746f206e6f6e204552433732315265cffa9b50753c7b5036f84470434f5fc280bacb0c75da644f758e47448764b1fd536d6f6c427261696e3a20657863656564656420746f6b656e496420666f7220",
  "devdoc": {
    "kind": "dev",
    "methods": {
      "approve(address,uint256)": {
        "details": "See {IERC721-approve}."
      },
      "balanceOf(address)": {
        "details": "See {IERC721-balanceOf}."
      },
      "getApproved(uint256)": {
        "details": "See {IERC721-getApproved}."
      },
      "getRoleAdmin(bytes32)": {
        "details": "Returns the admin role that controls `role`. See {grantRole} and {revokeRole}. To change a role's admin, use {_setRoleAdmin}."
      },
      "grantRole(bytes32,address)": {
        "details": "Grants `role` to `account`. If `account` had not been already granted `role`, emits a {RoleGranted} event. Requirements: - the caller must have ``role``'s admin role."
      },
      "hasRole(bytes32,address)": {
        "details": "Returns `true` if `account` has been granted `role`."
      },
      "isApprovedForAll(address,address)": {
        "details": "See {IERC721-isApprovedForAll}."
      },
      "name()": {
        "details": "See {IERC721Metadata-name}."
      },
      "ownerOf(uint256)": {
        "details": "See {IERC721-ownerOf}."
      },
      "renounceRole(bytes32,address)": {
        "details": "Revokes `role` from the calling account. Roles are often managed via {grantRole} and {revokeRole}: this function's purpose is to provide a mechanism for accounts to lose their privileges if they are compromised (such as when a trusted device is misplaced). If the calling account had been granted `role`, emits a {RoleRevoked} event. Requirements: - the caller must be `account`."
      },
      "revokeRole(bytes32,address)": {
        "details": "Revokes `role` from `account`. If `account` had been granted `role`, emits a {RoleRevoked} event. Requirements: - the caller must have ``role``'s admin role."
      },
      "safeTransferFrom(address,address,uint256)": {
        "details": "See {IERC721-safeTransferFrom}."
      },
      "safeTransferFrom(address,address,uint256,bytes)": {
        "details": "See {IERC721-safeTransferFrom}."
      },
      "schoolDrop(uint256,uint256)": {
        "params": {
          "_tokenId": "tokenId of the land"
        }
      },
      "setApprovalForAll(address,bool)": {
        "details": "See {IERC721-setApprovalForAll}."
      },
      "symbol()": {
        "details": "See {IERC721Metadata-symbol}."
      },
      "tokenByIndex(uint256)": {
        "details": "See {IERC721Enumerable-tokenByIndex}."
      },
      "tokenOfOwnerByIndex(address,uint256)": {
        "details": "See {IERC721Enumerable-tokenOfOwnerByIndex}."
      },
      "totalSupply()": {
        "details": "See {IERC721Enumerable-totalSupply}."
      },
      "transferFrom(address,address,uint256)": {
        "details": "See {IERC721-transferFrom}."
      }
    },
    "stateVariables": {
      "brainMaxLevel": {
        "details": "18 decimals"
      },
      "levelIQCost": {
        "details": "18 decimals"
      }
    },
    "version": 1
  },
  "userdoc": {
    "kind": "user",
    "methods": {},
    "version": 1
  },
  "storageLayout": {
    "storage": [
      {
        "astId": 24,
        "contract": "contracts/SmolBrain.sol:SmolBrain",
        "label": "_roles",
        "offset": 0,
        "slot": "0",
        "type": "t_mapping(t_bytes32,t_struct(RoleData)19_storage)"
      },
      {
        "astId": 509,
        "contract": "contracts/SmolBrain.sol:SmolBrain",
        "label": "_name",
        "offset": 0,
        "slot": "1",
        "type": "t_string_storage"
      },
      {
        "astId": 511,
        "contract": "contracts/SmolBrain.sol:SmolBrain",
        "label": "_symbol",
        "offset": 0,
        "slot": "2",
        "type": "t_string_storage"
      },
      {
        "astId": 515,
        "contract": "contracts/SmolBrain.sol:SmolBrain",
        "label": "_owners",
        "offset": 0,
        "slot": "3",
        "type": "t_mapping(t_uint256,t_address)"
      },
      {
        "astId": 519,
        "contract": "contracts/SmolBrain.sol:SmolBrain",
        "label": "_balances",
        "offset": 0,
        "slot": "4",
        "type": "t_mapping(t_address,t_uint256)"
      },
      {
        "astId": 523,
        "contract": "contracts/SmolBrain.sol:SmolBrain",
        "label": "_tokenApprovals",
        "offset": 0,
        "slot": "5",
        "type": "t_mapping(t_uint256,t_address)"
      },
      {
        "astId": 529,
        "contract": "contracts/SmolBrain.sol:SmolBrain",
        "label": "_operatorApprovals",
        "offset": 0,
        "slot": "6",
        "type": "t_mapping(t_address,t_mapping(t_address,t_bool))"
      },
      {
        "astId": 1448,
        "contract": "contracts/SmolBrain.sol:SmolBrain",
        "label": "_ownedTokens",
        "offset": 0,
        "slot": "7",
        "type": "t_mapping(t_address,t_mapping(t_uint256,t_uint256))"
      },
      {
        "astId": 1452,
        "contract": "contracts/SmolBrain.sol:SmolBrain",
        "label": "_ownedTokensIndex",
        "offset": 0,
        "slot": "8",
        "type": "t_mapping(t_uint256,t_uint256)"
      },
      {
        "astId": 1455,
        "contract": "contracts/SmolBrain.sol:SmolBrain",
        "label": "_allTokens",
        "offset": 0,
        "slot": "9",
        "type": "t_array(t_uint256)dyn_storage"
      },
      {
        "astId": 1459,
        "contract": "contracts/SmolBrain.sol:SmolBrain",
        "label": "_allTokensIndex",
        "offset": 0,
        "slot": "10",
        "type": "t_mapping(t_uint256,t_uint256)"
      },
      {
        "astId": 3715,
        "contract": "contracts/SmolBrain.sol:SmolBrain",
        "label": "_maleTokenIdTracker",
        "offset": 0,
        "slot": "11",
        "type": "t_struct(Counter)2154_storage"
      },
      {
        "astId": 3718,
        "contract": "contracts/SmolBrain.sol:SmolBrain",
        "label": "_femaleTokenIdTracker",
        "offset": 0,
        "slot": "12",
        "type": "t_struct(Counter)2154_storage"
      },
      {
        "astId": 3720,
        "contract": "contracts/SmolBrain.sol:SmolBrain",
        "label": "baseURI",
        "offset": 0,
        "slot": "13",
        "type": "t_string_storage"
      },
      {
        "astId": 3723,
        "contract": "contracts/SmolBrain.sol:SmolBrain",
        "label": "brainMaxLevel",
        "offset": 0,
        "slot": "14",
        "type": "t_uint256"
      },
      {
        "astId": 3726,
        "contract": "contracts/SmolBrain.sol:SmolBrain",
        "label": "levelIQCost",
        "offset": 0,
        "slot": "15",
        "type": "t_uint256"
      },
      {
        "astId": 3729,
        "contract": "contracts/SmolBrain.sol:SmolBrain",
        "label": "school",
        "offset": 0,
        "slot": "16",
        "type": "t_contract(School)3683"
      },
      {
        "astId": 3732,
        "contract": "contracts/SmolBrain.sol:SmolBrain",
        "label": "land",
        "offset": 0,
        "slot": "17",
        "type": "t_contract(Land)3049"
      },
      {
        "astId": 3736,
        "contract": "contracts/SmolBrain.sol:SmolBrain",
        "label": "brainz",
        "offset": 0,
        "slot": "18",
        "type": "t_mapping(t_uint256,t_uint256)"
      }
    ],
    "types": {
      "t_address": {
        "encoding": "inplace",
        "label": "address",
        "numberOfBytes": "20"
      },
      "t_array(t_uint256)dyn_storage": {
        "base": "t_uint256",
        "encoding": "dynamic_array",
        "label": "uint256[]",
        "numberOfBytes": "32"
      },
      "t_bool": {
        "encoding": "inplace",
        "label": "bool",
        "numberOfBytes": "1"
      },
      "t_bytes32": {
        "encoding": "inplace",
        "label": "bytes32",
        "numberOfBytes": "32"
      },
      "t_contract(Land)3049": {
        "encoding": "inplace",
        "label": "contract Land",
        "numberOfBytes": "20"
      },
      "t_contract(School)3683": {
        "encoding": "inplace",
        "label": "contract School",
        "numberOfBytes": "20"
      },
      "t_mapping(t_address,t_bool)": {
        "encoding": "mapping",
        "key": "t_address",
        "label": "mapping(address => bool)",
        "numberOfBytes": "32",
        "value": "t_bool"
      },
      "t_mapping(t_address,t_mapping(t_address,t_bool))": {
        "encoding": "mapping",
        "key": "t_address",
        "label": "mapping(address => mapping(address => bool))",
        "numberOfBytes": "32",
        "value": "t_mapping(t_address,t_bool)"
      },
      "t_mapping(t_address,t_mapping(t_uint256,t_uint256))": {
        "encoding": "mapping",
        "key": "t_address",
        "label": "mapping(address => mapping(uint256 => uint256))",
        "numberOfBytes": "32",
        "value": "t_mapping(t_uint256,t_uint256)"
      },
      "t_mapping(t_address,t_uint256)": {
        "encoding": "mapping",
        "key": "t_address",
        "label": "mapping(address => uint256)",
        "numberOfBytes": "32",
        "value": "t_uint256"
      },
      "t_mapping(t_bytes32,t_struct(RoleData)19_storage)": {
        "encoding": "mapping",
        "key": "t_bytes32",
        "label": "mapping(bytes32 => struct AccessControl.RoleData)",
        "numberOfBytes": "32",
        "value": "t_struct(RoleData)19_storage"
      },
      "t_mapping(t_uint256,t_address)": {
        "encoding": "mapping",
        "key": "t_uint256",
        "label": "mapping(uint256 => address)",
        "numberOfBytes": "32",
        "value": "t_address"
      },
      "t_mapping(t_uint256,t_uint256)": {
        "encoding": "mapping",
        "key": "t_uint256",
        "label": "mapping(uint256 => uint256)",
        "numberOfBytes": "32",
        "value": "t_uint256"
      },
      "t_string_storage": {
        "encoding": "bytes",
        "label": "string",
        "numberOfBytes": "32"
      },
      "t_struct(Counter)2154_storage": {
        "encoding": "inplace",
        "label": "struct Counters.Counter",
        "members": [
          {
            "astId": 2153,
            "contract": "contracts/SmolBrain.sol:SmolBrain",
            "label": "_value",
            "offset": 0,
            "slot": "0",
            "type": "t_uint256"
          }
        ],
        "numberOfBytes": "32"
      },
      "t_struct(RoleData)19_storage": {
        "encoding": "inplace",
        "label": "struct AccessControl.RoleData",
        "members": [
          {
            "astId": 16,
            "contract": "contracts/SmolBrain.sol:SmolBrain",
            "label": "members",
            "offset": 0,
            "slot": "0",
            "type": "t_mapping(t_address,t_bool)"
          },
          {
            "astId": 18,
            "contract": "contracts/SmolBrain.sol:SmolBrain",
            "label": "adminRole",
            "offset": 0,
            "slot": "1",
            "type": "t_bytes32"
          }
        ],
        "numberOfBytes": "64"
      },
      "t_uint256": {
        "encoding": "inplace",
        "label": "uint256",
        "numberOfBytes": "32"
      }
    }
  }
}